:020000040800F2
:1000000058130020E1820008490400084B0400084E
:100010004F040008530400085704000800000000C3
:100020000000000000000000000000005B04000869
:100030005D040008000000005F040008610400087F
:10004000FB820008FB820008FB820008FB8200089C
:10005000FB820008FB820008FB820008FB8200088C
:10006000FB820008FB820008FB820008FB8200087C
:10007000FB820008FB820008FB820008FB8200086C
:10008000FB820008FB820008FB820008FB8200085C
:10009000FB820008FB820008FB8200085D3E00082E
:1000A000FB820008FB820008FB820008FB8200083C
:1000B0006F41000885410008FB820008FB820008B0
:1000C000FB820008FB820008FB820008FB8200081C
:1000D000FB82000859770008E57E0008677C00086D
:1000E000FB820008FB820008FB820008FB820008FC
:1000F000FB820008FB820008FB820008FB820008EC
:10010000FB820008FB820008FB820008FB820008DB
:10011000FB820008FB820008E34200085525000826
:10012000FB820008FB820008FB820008FB820008BB
:10013000DFF80CD00AF0D0FA00480047450100086B
:100140005813002000BF4FF4A06008F05FFE01F0DC
:1001500056FE04F087F904F0D1F806F077FA02F0C1
:1001600009F802F0F9F804F01DF84FF4AF61974870
:1001700009F016FE03F091FF03F046FF00F062FA6B
:1001800000F0A2FA02F0F6F891489249086192490B
:100190009048816201209149088007F0A8FF002063
:1001A0008F4908600BE08F490A2007F084FE642025
:1001B00007F0A5FA8A480068401C89490860884809
:1001C00000680A28EFDB07F04EFF07F0D2FF03F0CC
:1001D000B8FEF9E084480078012855D1022383A2B3
:1001E0000021084600F0B5FB022382480278002176
:1001F0001E2001F02EF980480278022300215020B1
:1002000001F027F902237DA21946002000F0A1FB8E
:1002100002237C4802781946502001F01AF97A48E6
:10022000027801230421002001F013F97648427876
:1002300001230421182001F00CF97348827801236E
:100240000421302001F005F96F48C2780123042110
:10025000482001F0FEF86C48027901230421602057
:1002600001F0F7F8022369A20621002000F071FBDB
:100270004FF40061684808F038F90446022322462A
:100280000621502001F06EFC574800780028A0D1CC
:1002900040E00223614802780021084601F0DBF9C2
:1002A00002235FA20021282000F053FB02234622F4
:1002B0000021322001F0CDF802235AA204210020AF
:1002C00000F047FB02234B4802780421502001F044
:1002D000C2F9022356A20621002000F03AFB46484C
:1002E0004278022306211E2001F0B3F8022351A216
:1002F0000621322000F02DFB02234F480278062110
:10030000502001F0A6F840488278022300216420A2
:1003100001F09FF84FF400613F4808F0E6F801282B
:1003200003D1464800780028B3D03248007801282D
:100330002CD030480078022828D000202E490870A0
:1003400036480078462803DB01203D49087002E06A
:1003500001203C49087001F037FD4FF4FA7007F0B6
:10036000CEF937480078012804D1002034490870BC
:1003700007F086FD33480078012804D10020314978
:10038000087007F071FD01201749087019480078BE
:1003900001280AD101F018FD4FF4FA7007F0AFF907
:1003A00007F046FD01201049087012480078022825
:1003B0000AD101F009FD4FF4FA7007F0A0F907F037
:1003C00045FD01200849087004E7000000340140A1
:1003D000080A0020D8090020680A00203C000020FC
:1003E000280000203E0000202E0000206E756D3A8F
:1003F0000000000024000020D40A002078756E6AF6
:10040000693A00009C080020CE0A0020686F6E67E1
:100410007761693A0000000000080140E70A002007
:100420003C0000006578705F6E756D3A000000005A
:10043000586E3A0058653A0032000020020B002046
:100440003400002033000020704700BFFEE700BFEB
:10045000FEE700BFFEE700BFFEE77047704770474A
:10046000704700000CB50020019000906C480068B7
:1004700040F480306A49086000BF6948006800F4B1
:10048000003000900198401C0190009818B9019824
:10049000B0F5A06FF1D16248006800F4003010B1EF
:1004A0000120009001E0002000900098012843D135
:1004B0005C48006840F010005A490860084600682F
:1004C00020F0030008600846006840F00200086061
:1004D00053484068524948600846406848600846AA
:1004E000406840F4806048600846406820F47C1012
:1004F00048600846406840F4E810486008460068D4
:1005000040F08070086000BF4548006800F000704F
:100510000028F9D04248406820F003004049486074
:100520000846406840F00200486000BF3C48406810
:1005300000F00C000828F9D10CBD10B5FFF792FFB0
:1005400010BD10B53648006840F00100344908601D
:100550000846406834490840314948600846006808
:10056000324908402E4908600846006820F480207F
:1005700008600846406820F4FE0048604FF41F0001
:100580008860FFF7DAFF4FF000602949086010BD6E
:1005900010B5002100200022214B5B6803F00C0104
:1005A00021B1042906D0082928D107E0214B224C8B
:1005B000236027E01F4B204C236023E0184B5B682F
:1005C00003F47010164B5B6803F48032022303EBD4
:1005D000904022B9194B4343174C23600DE0104B58
:1005E0005B6803F4003323B1144B4343124C236084
:1005F00003E0104B4343104C236003E00D4B0E4CC3
:10060000236000BF00BF064B5B68C3F303130C4CB1
:10061000E15C094B1B68CB40074C236010BD000018
:1006200000100240002002400000FFF8FFFFF6FE2D
:1006300008ED00E000127A004800002000093D00AB
:100640004C00002008B50121102008F077F94FF484
:100650008060ADF8000010208DF8030003208DF8B5
:1006600002006946174807F0ADFE4FF40060ADF890
:10067000000010208DF8030003208DF80200694669
:10068000104807F09FFE4FF48050ADF80000102096
:100690008DF8030003208DF802006946094807F031
:1006A00091FE4FF48061074807F039FF4FF4006175
:1006B000044807F034FF4FF48051024807F02FFF41
:1006C00008BD00000010014008B50121042008F019
:1006D00035F901212D4807F046FF4FF40060ADF8D1
:1006E000000048208DF803006946294807F06AFE9B
:1006F00008BD10B5044614B10120264908702548EC
:10070000007858B34FF40061214807F0EEFE48B17D
:100710000421214807F0E9FE20B101211E4807F01D
:10072000E4FED8B90A2006F0EAFF00201949087053
:100730004FF40061164807F0D8FE08B9012010BD3B
:100740000421154807F0D1FE08B90220F7E701217E
:10075000114807F0CAFEB0B90320F0E74FF400617A
:100760000B4807F0C2FE01280DD104210A4807F00A
:10077000BCFE012807D10121074807F0B6FE012879
:1007800001D1044908700020D9E7000000023000C0
:10079000000801405C0000200010014010B5044634
:1007A00001F02EFC782001F0FEFB01F0D1FB18B126
:1007B00001F0AFFB012010BD402001F0F4FB01F07F
:1007C000C7FB18B101F0A5FB0120F4E7204601F0BA
:1007D000EAFB01F0BDFB18B101F09BFB0120EAE749
:1007E00001F097FB0020E6E710B5044601F008FC95
:1007F000782001F0D8FB01F0ABFB18B101F089FBC8
:10080000012010BD002001F0CEFB01F0A1FB18B1CA
:1008100001F07FFB0120F4E7204601F0C4FB01F06A
:1008200097FB18B101F075FB0120EAE701F071FBBD
:100830000020E6E770B504460D4605F1B001C8B2E8
:10084000FFF7D2FF102141EA1410FFF7CDFF04F0AB
:100850000F0141F00100FFF7C7FF70BD2DE9F84F10
:100860000646884691469A4600270024002509F14D
:100870003000C0B28DF8000000208DF80100BAF100
:10088000010F03D0BAF1020F60D126E020E01DF87D
:1008900005002038C7B27E2E04DD002608F10100D5
:1008A00000F0FF0841463046FFF7C4FF002409E08E
:1008B00007EB4701FE4A02EB4101085DFFF76EFFBF
:1008C000601CC4B2062CF3DBB01DC6B2681CC5B2F6
:1008D0001DF805000028DAD138E032E01DF80500E7
:1008E0002038C7B2782E04DD002608F1010000F0A0
:1008F000FF0841463046FFF79DFF002407E004EB68
:100900000711EC4A505CFFF749FF601CC4B2082C89
:10091000F5DB08F10100C1B23046FFF78BFF002480
:1009200008E004EB07110831E24A505CFFF736FF9C
:10093000601CC4B2082CF4DB06F10800C6B2681CC7
:10094000C5B21DF805000028C8D100BF00BFBDE832
:10095000F88F2DE9F0470646894617469A464FF02C
:10096000000800240025BAF1010F03D0BAF1020FEC
:100970005ED125E020E0785D203800F0FF087E2E73
:1009800004DD002609F1010000F0FF094946304668
:10099000FFF750FF002409E008EB4801C44A02EBCE
:1009A0004101085DFFF7FAFE601CC4B2062CF3DBC0
:1009B000B01DC6B2681CC5B2785D0028DBD137E037
:1009C00032E0785D203800F0FF08782E04DD002644
:1009D00009F1010000F0FF0949463046FFF72AFF00
:1009E000002407E004EB0811B24A505CFFF7D6FE82
:1009F000601CC4B2082CF5DB09F10100C1B230461D
:100A0000FFF718FF002408E004EB08110831A94A99
:100A1000505CFFF7C3FE601CC4B2082CF4DB06F187
:100A20000800C6B2681CC5B2785D0028C9D100BFF5
:100A300000BFBDE8F0872DE9F047054600249E4938
:100A4000284609F094FA814609F0A8FC04460A20D9
:100A500094FBF0F100FB1146642094FBF0F100FBE5
:100A600011400A2190FBF1F74FF47A7094FBF0F1FA
:100A700000FB1140642190FBF1F802234246194625
:100A80000020FFF7EBFE02233A4619460820FFF745
:100A9000E5FE022389A219461020FFF75AFF022320
:100AA000324619461820FFF7D9FEBDE8F0872DE938
:100AB000F0470446884615461E460A20B5FBF0F16D
:100AC00000FB11596420B5FBF0F100FB11500A2125
:100AD000B0FBF1FA4FF47A70B5FBF0F100FB115066
:100AE0006421B0FBF1F7012E24D137B133463A46E9
:100AF00041462046FFF7B2FE05E0334670A241466C
:100B00002046FFF726FFA11DC8B233465246414694
:100B1000FFF7A4FE04F10C01C8B2334667A24146B8
:100B2000FFF717FF04F11201C8B233464A464146A7
:100B3000FFF794FE022E16D12FB133463A464146B6
:100B40002046FFF78BFE04F10C01C8B233465BA2CE
:100B50004146FFF7FEFE04F11201C8B233464A4691
:100B60004146FFF77BFEBDE8F0872DE9F05F0446C4
:100B70008946164698460A20B6FBF0F100FB116A3A
:100B80006420B6FBF0F100FB11600A21B0FBF1FB21
:100B90004FF47A70B6FBF0F100FB11606421B0FBFA
:100BA000F1F742F21070B6FBF0F100FB11604FF468
:100BB0007A71B0FBF1F5B8F1010F43D165B143464D
:100BC0002A4649462046FFF749FEA11DC8B24346C2
:100BD0003A464946FFF742FE6FB165B9434638A22F
:100BE00049462046FFF7B5FEA11DC8B243463A4626
:100BF0004946FFF733FE6FB965B9434630A249460F
:100C00002046FFF7A6FEA11DC8B243462CA24946C6
:100C1000FFF79FFE04F10C01C8B243465A4649460D
:100C2000FFF71CFE04F11201C8B2434623A2494655
:100C3000FFF78FFE04F11801C8B2434652464946F9
:100C4000FFF70CFEB8F1020F4FD165B143462A46BB
:100C500049462046FFF702FEA11DC8B243463A4668
:100C60004946FFF7FBFD6FB165B9434614A24946FB
:100C70002046FFF76EFEA11DC8B243463A464946DC
:100C8000FFF7ECFD6FB965B943460DA24946204612
:100C9000FFF75FFEA11DC8B2434609A24946FFF710
:100CA00058FE04F11001C8B243465A46494609E0CD
:100CB00074AF00089CB10008000020412E00000025
:100CC00020000000FFF7CAFD04F11801C8B2434636
:100CD000AFF218024946FFF73CFE04F12001C8B20A
:100CE000434652464946FFF7B9FDBDE8F09F2DE95E
:100CF000FF4F81B08B46F749019809F038F9009011
:100D000009F04CFB0446F349584609F030F90090CD
:100D100009F044FB0546EF49039809F028F90090D3
:100D200009F03CFB0646EB49049809F020F90090D5
:100D300009F034FB0746E7490E9809F018F90090CE
:100D400009F02CFB8046E3490F9809F010F9009058
:100D500009F024FB8146DF49109809F008F900905A
:100D600009F01CFB82460123DBA200211820FFF7BB
:100D7000F0FD0123DAA219460020FFF7EAFD012366
:100D8000D9A202210020FFF7E4FD0123D8A203210C
:100D90000020FFF7DEFD0123D7A204210020FFF78A
:100DA000D8FD0123D6A205210020FFF7D2FD0123A3
:100DB000D5A206210020FFF7CCFD0123D4A20721F4
:100DC0000020FFF7C6FD002C07DA0123D2A2194646
:100DD0002A20FFF7BEFD644206E00123AFF2201295
:100DE00019462A20FFF7B5FD012322461946302077
:100DF000FFF75DFE002D07DA0123C7A202212A209A
:100E0000FFF7A7FD6D4206E00123AFF24C1202216D
:100E10002A20FFF79EFD01232A4602213020FFF7FA
:100E200046FE002E07DA0123BBA203212A20FFF78A
:100E300090FD764206E00123AFF27C1203212A20C6
:100E4000FFF787FD0123324603213020FFF72FFEF5
:100E5000002F07DA0123B0A207212A20FFF779FD2E
:100E60007F4206E00123AFF2A81207212A20FFF7F4
:100E700070FD01233A4607213020FFF776FEB8F1D6
:100E8000000F08DA0123A4A205212A20FFF761FD43
:100E9000C8F1000806E00123AFF2DC1205212A2088
:100EA000FFF757FD0123424605213020FFF7FFFDE4
:100EB000B9F1000F08DA012397A206212A20FFF7D3
:100EC00048FDC9F1000906E00123AFF20C2206211A
:100ED0002A20FFF73EFD01234A4606213020FFF776
:100EE000E6FDBAF1000F08DA01238BA204212A20C3
:100EF000FFF72FFDCAF1000A06E00123AFF24022FE
:100F000004212A20FFF725FD012352460421302029
:100F1000FFF7CDFD05B0BDE8F08F2DE9FF4F81B0A3
:100F20008B466C49019809F022F8009009F036FAD6
:100F300004466849584609F01AF8009009F02EFA5C
:100F400005466449039809F012F8009009F026FA62
:100F500006466049049809F00AF8009009F01EFA64
:100F600007465C490E9809F002F8009009F016FA5D
:100F7000804658490F9808F0FAFF009009F00EFAE1
:100F800081465449109808F0F2FF009009F006FAE3
:100F90008246012361A200215420FFF7DAFC002CD5
:100FA00007DA01235CA219465A20FFF7D2FC6442FB
:100FB00006E00123AFF2F82219465A20FFF7C9FCD8
:100FC0000123224619466020FFF771FD002D07DA44
:100FD000012351A202215A20FFF7BBFC6D4206E01B
:100FE0000123AFF2243202215A20FFF7B2FC012381
:100FF0002A4602216020FFF75AFD002E07DA01235E
:1010000045A203215A20FFF7A4FC764206E0012303
:10101000AFF2543203215A20FFF79BFC01233246E2
:1010200003216020FFF743FD002F07DA01233AA2D6
:1010300007215A20FFF78DFC7F4206E00123AFF223
:10104000803207215A20FFF784FC01233A4607210A
:101050006020FFF78AFDB8F1000F08DA01232EA205
:1010600005215A20FFF775FCC8F1000806E00123AE
:10107000AFF2B43205215A20FFF76BFC0123424640
:1010800005216020FFF713FDB9F1000F08DA0123F5
:1010900021A206215A20FFF75CFCC9F1000906E0F5
:1010A0000123AFF2E43206215A20FFF752FC01235C
:1010B0004A4606216020FFF7FAFCBAF1000F31DA48
:1010C000012315A204215A20FFF743FCCAF1000AAC
:1010D0002FE00000000020415265616C000000001C
:1010E00050697463683A0000526F6C6C3A000000FB
:1010F0005961773A000000005261646975733A00E3
:101100004C656E6774683A0054696D653A0000007A
:1011100053706565643A00002D00000045787065E5
:10112000637400000123AFF2684204215A20FFF7E4
:1011300010FC0123524604216020FFF7B8FC05B0E3
:10114000BDE8F08F2DE9F05F04460F4615461E46B8
:101150000A20B5FBF0F100FB11586420B5FBF0F15B
:1011600000FB11500A21B0FBF1F94FF47A70B5FB86
:10117000F0F100FB11506421B0FBF1FA42F2107063
:10118000B5FBF0F100FB11504FF47A71B0FBF1FBAD
:10119000012E1CD133465A4639462046FFF75EFBE6
:1011A000A11DC8B2334652463946FFF757FB04F13A
:1011B0000C01C8B233464A463946FFF74FFB04F1EB
:1011C0001201C8B2334642463946FFF747FB022EAA
:1011D0001DD133465A4639462046FFF73FFB04F1FE
:1011E0000801C8B2334652463946FFF737FB04F1CF
:1011F0001001C8B233464A463946FFF72FFB04F1C7
:101200001801C8B2334642463946FFF727FBBDE80E
:10121000F09F70B505460C46002D08DA0223AFF2A8
:10122000081204213220FFF794FB6D4206E00223EE
:10123000AFF2745204213220FFF78BFB02232A46BF
:1012400004213A20FFF77EFF002C08DA0223AFF2D8
:10125000381206213220FFF77CFB644206E00223AD
:10126000AFF2A45206213220FFF773FB022322467D
:1012700006213A20FFF766FF70BD10B50446002C2A
:1012800008DA0223AFF2701204213220FFF761FB6B
:10129000644206E00223AFF2D85204213220FFF765
:1012A00058FB0223224604213A20FFF74BFF10BDD2
:1012B00070B50546FE49284608F059FE064609F075
:1012C0006DF80446002C08DA0223AFF2B412194676
:1012D0000020FFF73EFB644206E00223AFF22062EB
:1012E00019460020FFF735FB022322461946082045
:1012F000FFF7DDFB70BD2DE9F04107460E46EC49D6
:10130000384608F034FE804609F048F80446E849BB
:10131000304608F02CFE804609F040F80546002CC7
:1013200008DA0223AFF2102219460020FFF711FB62
:10133000644206E00223AFF2786219460020FFF70C
:1013400008FB0223224619460820FFF7B0FB002DB8
:1013500008DA0223AFF2402204210020FFF7F9FA55
:101360006D4206E00223AFF2A86204210020FFF7DD
:10137000F0FA02232A4604210820FFF7F6FBBDE815
:10138000F0812DE9F04704460F4615461E460A2017
:10139000B5FBF0F100FB11586420B5FBF0F100FB48
:1013A00011500A21B0FBF1F94FF47A70B5FBF0F15E
:1013B00000FB11506421B0FBF1FA012E14D1334629
:1013C000524639462046FFF749FAA11DC8B23346B6
:1013D0004A463946FFF742FA04F10C01C8B23346D7
:1013E00042463946FFF73AFA022E15D133465246A5
:1013F00039462046FFF732FA04F10801C8B23346F5
:101400004A463946FFF72AFA04F11001C8B23346BA
:1014100042463946FFF722FABDE8F08710B5044688
:10142000002C08DA0223AFF2103204213220FFF739
:1014300090FA644206E00223AFF27C72042132206B
:10144000FFF787FA0223224604213A20FFF799FF8B
:1014500010BD2DE9F04704460F4615461E460A20EA
:10146000B5FBF0F100FB11586420B5FBF0F100FB77
:1014700011500A21B0FBF1F9012E0CD133464A4636
:1014800039462046FFF7EAF9A11DC8B23346424665
:101490003946FFF7E3F9022E0DD133464A46394665
:1014A0002046FFF7DBF904F10801C8B23346424693
:1014B0003946FFF7D3F9BDE8F08710B50446002C94
:1014C00008DA0223AFF2B03204213220FFF741FAEA
:1014D000644206E00223AFF6180204213220FFF72F
:1014E00038FA0223224604213A20FFF7B2FF10BD4A
:1014F0002DE9F84F04460F4615461E460A20B5FB57
:10150000F0F100FB11586420B5FBF0F100FB115025
:101510000A21B0FBF1F94FF47A70B5FBF0F100FB52
:1015200011506421B0FBF1FA42F21070B5FBF0F1FA
:1015300000FB11504FF47A71B0FBF1FB5D48B5FB35
:10154000F0F100FB115042F21071B0FBF1F000908D
:10155000012E2DD1334639462046009AFFF77EF9F9
:10156000A11DC8B233465A463946FFF777F904F150
:101570000C01C8B2334652463946FFF76FF904F101
:101580001201C8B233464A463946FFF767F904F1FB
:101590001801C8B23346AFF6DC023946FFF7D9F975
:1015A00004F11E01C8B2334642463946FFF756F9E8
:1015B000022E2ED1334639462046009AFFF74EF9C7
:1015C00004F10801C8B233465A463946FFF746F9D6
:1015D00004F11001C8B2334652463946FFF73EF9CE
:1015E00004F11801C8B233464A463946FFF736F9C6
:1015F00004F12001C8B23346AFF640123946FFF776
:10160000A8F904F12801C8B2334642463946FFF72B
:1016100025F9BDE8F88F014600291ADB25488142EB
:1016200017DA0A2901DA01207047642901DA022059
:10163000FAE7B1F57A7F01DA0320F5E742F210709C
:10164000814201DA0420EFE71B48814201DA0520DC
:10165000EAE70020E8E72DE9F84F04460F46154673
:101660001E460A20B5FBF0F100FB11586420B5FBC3
:10167000F0F100FB11500A21B0FBF1F94FF47A7040
:10168000B5FBF0F100FB11506421B0FBF1FA42F21E
:101690001070B5FBF0F100FB11504FF47A71B0FB04
:1016A000F1FB42F21070B5FBF0F00090012E05E066
:1016B00000002041A086010040420F0072D1284660
:1016C000FFF7A9FF062811D2DFE800F093031127E6
:1016D000456D3346424639462046FFF7BFF8A11D07
:1016E000C8B23346FAA23946FFF733F981E03346F0
:1016F0004A4639462046FFF7B1F8A11DC8B2334625
:1017000042463946FFF7AAF804F10C01C8B2334645
:10171000F1A23946FFF71DF96BE0334652463946D0
:101720002046FFF79BF8A11DC8B233464A4639460A
:10173000FFF794F804F10C01C8B23346424639462B
:10174000FFF78CF804F11201C8B23346E3A2394620
:10175000FFF7FFF84DE033465A4639462046FFF77B
:101760007DF8A11DC8B2334652463946FFF776F8D8
:1017700004F10C01C8B233464A463946FFF76EF809
:1017800004F11201C8B2334642463946FFF766F803
:1017900004F11801C8B23346AFF6DC223946FFF730
:1017A000D8F826E026E0334639462046009AFFF76F
:1017B00055F8A11DC8B233465A463946FFF74EF8D0
:1017C00004F10C01C8B2334652463946FFF746F8D9
:1017D00004F11201C8B233464A463946FFF73EF8D3
:1017E00004F11801C8B2334642463946FFF736F8CD
:1017F00000BF00BF022E76D12846FFF70CFF062857
:1018000012D2DFE800F098031229487133464246AD
:1018100039462046FFF722F804F10801C8B23346E2
:10182000ABA23946FFF795F885E033464A4639467C
:101830002046FFF713F804F10801C8B233464246C8
:101840003946FFF70BF804F11001C8B23346A2A2E3
:101850003946FFF77EF86EE0334652463946204659
:10186000FEF7FCFF04F10801C8B233464A46394688
:10187000FEF7F4FF04F11001C8B233464246394680
:10188000FEF7ECFF04F11801C8B2334693A23946C3
:10189000FFF75FF84FE033465A4639462046FEF7D9
:1018A000DDFF04F10801C8B2334652463946FEF75F
:1018B000D5FF04F11001C8B233464A463946FEF757
:1018C000CDFF04F11801C8B2334642463946FEF74F
:1018D000C5FF04F12001C8B23346AFF61C423946B9
:1018E000FFF737F827E027E0334639462046009ACD
:1018F000FEF7B4FF04F10801C8B233465A46394630
:10190000FEF7ACFF04F11001C8B233465246394627
:10191000FEF7A4FF04F11801C8B233464A4639461F
:10192000FEF79CFF04F12001C8B233464246394617
:10193000FEF794FF00BF00BFBDE8F88F2DE9F05F10
:1019400004460F4615461E460A20B5FBF0F100FB83
:1019500011586420B5FBF0F100FB11500A21B0FBD7
:10196000F1F94FF47A70B5FBF0F100FB11506421EE
:10197000B0FBF1FA42F21070B5FBF0F100FB115030
:101980004FF47A71B0FBF1FB012E6DD12846FFF7C1
:1019900042FE012806D0022812D0032826D00428AF
:1019A00061D142E03346424639462046FEF756FFB3
:1019B000A11DC8B2334648A23946FEF7CAFF52E01D
:1019C00033464A4639462046FEF748FFA11DC8B2B5
:1019D000334642463946FEF741FF04F10C01C8B2D6
:1019E00033463EA23946FEF7B4FF3CE0334652464A
:1019F00039462046FEF732FFA11DC8B233464A469B
:101A00003946FEF72BFF04F10C01C8B233464246BB
:101A10003946FEF723FF04F11201C8B23346AFF690
:101A200060523946FEF795FF1DE033465A46394667
:101A30002046FEF713FFA11DC8B233465246394671
:101A4000FEF70CFF04F10C01C8B233464A46394692
:101A5000FEF704FF04F11201C8B23346424639468C
:101A6000FEF7FCFE00BF00BF022E79D12846FFF72B
:101A7000D2FD012806D0022813D0032830D0042834
:101A80006DD14DE03346424639462046FEF7E6FE2C
:101A900004F10801C8B233460FA23946FEF759FFD8
:101AA0005DE033464A4639462046FEF7D7FE04F14C
:101AB0000801C8B2334642463946FEF7CFFE04F16C
:101AC0001001C8B2334605A23946FEF742FF46E090
:101AD00020202020000000002020200020200000E6
:101AE0003346524639462046FEF7B8FE04F1080157
:101AF000C8B233464A463946FEF7B0FE04F110013B
:101B0000C8B2334642463946FEF7A8FE04F1180132
:101B1000C8B23346AFF658623946FEF71AFF1EE0E8
:101B200033465A4639462046FEF798FE04F108012E
:101B3000C8B2334652463946FEF790FE04F1100112
:101B4000C8B233464A463946FEF788FE04F118010A
:101B5000C8B2334642463946FEF780FE00BF00BF9A
:101B6000BDE8F09F2DE9F04704460F4615461E4696
:101B70000A20B5FBF0F100FB11586420B5FBF0F131
:101B800000FB11500A21B0FBF1F94FF47A70B5FB5C
:101B9000F0F100FB11506421B0FBF1FA012E46D1A7
:101BA0002846FFF738FD012804D0022811D0032869
:101BB0003CD125E03346424639462046FEF74EFEEC
:101BC000A11DC8B23346AFF2EC023946FEF7C1FEA2
:101BD0002CE033464A4639462046FEF73FFEA11D1B
:101BE000C8B2334642463946FEF738FE04F10C01CE
:101BF000C8B23346AFF638723946FEF7AAFE15E092
:101C00003346524639462046FEF728FEA11DC8B28B
:101C100033464A463946FEF721FE04F10C01C8B2AC
:101C2000334642463946FEF719FE00BF00BF022E7A
:101C300049D12846FFF7EFFC012804D0022812D032
:101C400003283FD127E03346424639462046FEF777
:101C500005FE04F10801C8B23346AFF280123946DE
:101C6000FEF777FE2EE033464A4639462046FEF719
:101C7000F5FD04F10801C8B2334642463946FEF785
:101C8000EDFD04F11001C8B23346AFF6CC7239460F
:101C9000FEF75FFE16E03346524639462046FEF711
:101CA000DDFD04F10801C8B233464A463946FEF765
:101CB000D5FD04F11001C8B2334642463946FEF75D
:101CC000CDFD00BF00BFBDE8F0872DE9F0418046A3
:101CD0000E46174600247D0131464046FEF7AAFD18
:101CE00000BF06E07A49485DFEF758FD6D1C601C98
:101CF000C4B2102CF6DB701CC1B24046FEF79AFD50
:101D0000002406E07249485DFEF748FD6D1C601C2A
:101D1000C4B2102CF6DBBDE8F0812DE9F05F064679
:101D20000F4690461C46DDF828A04FF0000BE11747
:101D300004EB5171C910A4EBC10131B92046E11780
:101D400004EB5171C1F3C70506E02046E11704EB2F
:101D50005171C910491CCDB23D4614E029463046A8
:101D6000FEF768FDB1460AE059460BF1010B1AF87F
:101D70000100FEF713FD09F1010000F0FF09C14564
:101D8000F2DB681CC5B2A542E8DBBDE8F09F70B588
:101D90000646002415E004F1B001C8B2FEF724FDA8
:101DA0000020FEF721FD1020FEF71EFD002504E0B7
:101DB0003046FEF7F3FC681CC5B2802DF8DB601CD2
:101DC000C4B2082CE7DB70BD10B50020FFF7DFFFC1
:101DD00010BD10B58D20FEF707FD1420FEF704FDA1
:101DE000AF20FEF701FD10BD10B58D20FEF7FCFC05
:101DF0001020FEF7F9FCAE20FEF7F6FC10BD10B582
:101E000005F040FC00F066F8642005F078FCAE2098
:101E1000FEF7EAFC2020FEF7E7FC1020FEF7E4FCCA
:101E2000B020FEF7E1FCC020FEF7DEFCA020FEF7AC
:101E3000DBFC0020FEF7D8FC1020FEF7D5FC40208C
:101E4000FEF7D2FC8120FEF7CFFCFF20FEF7CCFC92
:101E5000A620FEF7C9FCA820FEF7C6FC3F20FEF72F
:101E6000C3FCA420FEF7C0FCD320FEF7BDFC00207D
:101E7000FEF7BAFCD520FEF7B7FCF020FEF7B4FC65
:101E8000D920FEF7B1FC2220FEF7AEFCDA20FEF7E7
:101E9000ABFC1220FEF7A8FCDB20FEF7A5FC2020FF
:101EA000FEF7A2FC8D20FEF79FFC1420FEF79CFCA1
:101EB000AF20FEF799FC0021C82000F0C3F80021F4
:101EC000A12000F0BFF80020FFF761FF10BD000067
:101ED0005D00002008B50121102006F02FFD012132
:101EE000084606F02BFD01219E4806F03CFB302001
:101EF000ADF8000010208DF8030003208DF80200DB
:101F00006946994806F05EFA3021974806F007FBCB
:101F100008BD10B59448006820F47020924908600C
:101F20000846006840F44030086000208F4908608F
:101F30008F49C1F89001042005F0BDFB01208B49B9
:101F400008608B49C1F89001042005F0B4FB10BD76
:101F500010B500248448006820F47020824908608D
:101F60000846006840F40020086001207F49091FEE
:101F7000086005F0A0FB01207D49C1F8940105F03F
:101F80009AFB07E0601CC4B2FA2C03DDFFF7C1FF27
:101F9000012010BD7548843800680028F2D17349CB
:101FA000086000BFF5E770B504466F48006820F48C
:101FB00070206D4908600846006840F440300860B1
:101FC00000206A490860002517E0E0096749091FF9
:101FD00008606006040E022005F06DFB01206449D4
:101FE000C1F89401022005F066FB00205F490860FB
:101FF000022005F060FB681CC5B2082DE5DB70BD52
:1020000010B55948006820F4702057490860084608
:10201000006840F44030086001205449091F0860FE
:102020005349C1F89401042005F045FB00204F49B5
:10203000091F0860042005F03EFB00204C49C1F850
:10204000940110BD70B505460C46FFF7D9FF782006
:10205000FFF7A9FFFFF77CFF1CB14020FFF7A3FFAC
:1020600002E00020FFF79FFFFFF772FF2846FFF70F
:102070009AFFFFF76DFFFFF76BFF70BD10B50020F3
:102080003A4908603848006820F4702036490860F2
:102090000846006840F44030086000203449C1F828
:1020A0009001022005F007FB012030490860022062
:1020B00005F001FB00202E49C1F8940110BD10B5B8
:1020C00000202A4908602848006820F4702026492A
:1020D00008600846006840F4403008600120244948
:1020E000C1F89001022005F0E6FA01201F490860BE
:1020F000022005F0E0FA00201D49C1F8940110BD4E
:1021000070B5054600241848006820F47020164970
:1021100008600846006840F400200860002616E0C9
:10212000002012490860022005F0C5FA012010497C
:10213000C1F894016006040E0C488438006808B1A8
:10214000601CC4B2012005F0B6FA701CC6B2082E9D
:10215000E6DB15B9FFF7B3FF01E0FFF78FFF20467D
:1021600070BD0000000230000010014094012242C6
:102170000000224208B50121082006F0DFFB012102
:10218000042006F0DBFB10208DF803004FF47040B4
:10219000ADF8000003208DF802006946384806F0CB
:1021A00011F908BD0268B2F5E15F02DD4FF4E152BA
:1021B0000260026812F5E15F01DA324A02600A68E1
:1021C000B2F5E15F02DD4FF4E1520A600A6812F5F0
:1021D000E15F01DA2B4A0A6070470146002901DD00
:1021E0000A4600E04A421046704770B505460C4664
:1021F000B5F5E15F01DD4FF4E155B4F5E15F01DDD7
:102200004FF4E15415F5E15F00DA1E4D14F5E15F7E
:1022100000DA1C4C002D07DB00201B490860012060
:102220001A49C1F8B40106E00120174908600020EE
:102230001649C1F8B4012846FFF7CFFF86B23146F0
:10224000134807F0A7FD002C08DB00200E490831D9
:10225000086001200D49C1F8BC0107E001200A49CE
:102260000831086000200949C1F8BC012046FFF789
:10227000B4FF86B23146064807F08EFD70BD0000FF
:10228000000C0140E0E3FFFFB081214200802142C9
:102290000008004008B50121082006F04FFB40204F
:1022A000ADF8000018208DF8030003208DF802001F
:1022B00069462C4806F086F80121082006F03EFB0E
:1022C0008020ADF8000018208DF8030003208DF861
:1022D00002006946234806F075F808BD00B587B0CE
:1022E0000121042006F037FB41F61F40ADF8040041
:1022F0000020ADF80000ADF80600ADF802008DF842
:1023000008006946184806F051FF6020ADF80C003F
:102310000120ADF80E000020ADF81400134800882D
:10232000ADF8120003A9104806F07DFF08210E4801
:1023300007F0C8FB0E480088ADF8120003A90A4850
:1023400006F0B3FF0821084807F0C5FB0121064845
:1023500007F088FA07B000BD10B5FFF79BFFFFF745
:10236000BDFF10BD000C0140000800405E080020C9
:102370006008002008B50121202006F0DFFA0420C3
:10238000ADF8000010208DF8030003208DF8020046
:1023900069460D4806F016F804210B4806F0C1F80E
:1023A00008BD10B50421084806F0B9F84FF4FA70DA
:1023B00005F0A5F90421044806F0B3F84FF4FA70CB
:1023C00005F09DF910BD00000014014010B500217A
:1023D000684807F0DBFC0020674908800121654858
:1023E00007F040FA10BD10B50021624807F03AFA34
:1023F00010BD10B500BF604800884FF47A7100FB33
:1024000001F45C4807F0E5FC0444002059492431FC
:102410000880012005F073F9204610BD00B585B095
:1024200005F030F90121042006F088FA012120206E
:1024300006F091FA10208DF813000001ADF810009D
:1024400003208DF8120004A94C4805F0BBFF4FF49F
:1024500080714A4806F065F804208DF813004002A8
:10246000ADF8100004A9454805F0ACFF4FF4006139
:10247000424806F056F83F4806F0C4FD40F2E73007
:10248000ADF808004720ADF804000020ADF80A00C0
:10249000ADF8060001A9374806F088FE0122114672
:1024A000344807F0FAF937208DF8000001208DF844
:1024B000030000208DF801008DF80200684606F048
:1024C000AAFC00212B4807F0CDF905B000BD2DE98D
:1024D000F84F4FF0000A0024A146A34630E0012047
:1024E0002749086005F00BF900202649C1F8A00132
:1024F00000BF2348743800680028FAD0FFF766FF51
:10250000641C00BF1E48743800680128FAD0FFF729
:102510006AFFFFF76EFF8246504607F029FF0090E2
:1025200007F088FF07460022174B07F0A9FE054673
:1025300007F093FF81464946584607F0C0FC8346A2
:10254000052CCCD11149584607F043FD8146484639
:10255000BDE8F88F10B50121064807F04CFC40B1EA
:102560000121044807F058FC03480088401C024938
:10257000088010BD001400406608002000080140DB
:10258000A00121420000214200004D400000A04077
:1025900010B5022005F08FF810BD08B50121082004
:1025A00006F0CCF91820ADF8000010208DF80300DB
:1025B00003208DF802006946834805F003FF08BD3B
:1025C00010B58148006820F470407F4908600846D3
:1025D000006840F44050086001207C4908607C4954
:1025E000C1F89001FFF7D4FF002078490860FFF799
:1025F000CFFF00207649C1F8900110BD10B5724898
:10260000006820F47040704908600846006840F493
:102610004050086000206D49091D08606C49C1F8F0
:102620008C01FFF7B5FF01206849091D0860684962
:10263000C1F88C01FFF7ACFF10BD10B50024624853
:10264000006820F47040604908600846006840F463
:102650000040086001205D490860FFF799FF0120F4
:102660005B49C1F89001FFF793FF07E0601CC4B21B
:10267000FA2C03DDFFF7C2FF012010BD534880385C
:1026800000680028F2D15149091D086000BFF4E735
:1026900010B500204D49091D08604B48006820F422
:1026A0007040494908600846006840F4405008609E
:1026B00000204749C1F88C01FFF76AFF0120434918
:1026C000091D0860FFF764FF00204149C1F890012F
:1026D00010BD10B500203D49091D08603A4800684A
:1026E00020F47040384908600846006840F44050C3
:1026F000086001203649C1F88C01FFF749FF01202D
:102700003249091D0860FFF743FF00203049C1F836
:10271000900110BD70B504462B48006820F470404D
:10272000294908600846006840F4405008600020CD
:102730002649091D0860002512E0E00923490860C8
:102740006006040E01202249C1F89001FFF720FF26
:1027500000201E49091D0860FFF71AFF681CC5B25A
:10276000082DEADB70BD70B50546002416480068E8
:1027700020F47040144908600846006840F40040A6
:102780000860002615E000201049091D0860FFF7C9
:10279000FFFE01200E49C1F890016006040E0B48AF
:1027A0008038006808B1601CC4B2FFF7F1FE701CED
:1027B000C6B2082EE7DB15B9FFF78BFF01E0FFF784
:1027C00067FF204670BD0000000C01408C81214253
:1027D000008021422DE9FC5FFE48007801287DD170
:1027E000FD48807801280BD1FB48407840B9FA4871
:1027F000C07828B9F94801680068FFF7F6FCE8E0FE
:10280000F5484078012837D1F3480078002833D1C3
:10281000F248006807F0B1FD8246F14AF14B07F03B
:10282000BDFC06460F46ED48006807F0A6FD804651
:1028300032463B4607F00BFC044607F0DCFD0190F6
:10284000E648006807F099FD8246E54AE54B07F047
:10285000A5FC06460F46E148006807F08EFD80465D
:1028600032463B4607F094FC044607F0C4FD009056
:102870000199FFF7BAFCACE0D7480078012835D1C0
:10288000D648006807F079FD8246D54AD64B07F056
:1028900085FC04460D46D148006807F06EFD0646EB
:1028A00022462B4607F0D3FB804607F0A4FD01909B
:1028B000CA48006807F061FD8046C94ACA4B07F064
:1028C0006DFC06460F46C548006807F056FD824677
:1028D00032463B4607F05CFC044600E0B1E207F0FC
:1028E0008AFD00900199FFF780FC72E0BA48C07839
:1028F000012837D1B848007998BBB848006807F07C
:102900003CFD8246B64AB74B07F048FC80468946F4
:10291000B248006807F031FD064642464B4607F0D4
:1029200037FC044607F067FD0190AC48006807F0EB
:1029300024FD8246AA4AAB4B07F030FC06460F4600
:10294000A648006807F019FD804632463B4607F06E
:102950007EFB044607F04FFD00900199FFF745FC10
:1029600037E0FFE79C480079012832D19B48006896
:1029700007F003FD80469A4A9B4B07F00FFC044684
:102980000D469648006807F0F8FC064622462B469E
:1029900007F0FEFB824607F02EFD01908F4800688D
:1029A00007F0EBFC80468E4A8F4B07F0F7FB04469E
:1029B0000D468A48006807F0E0FC064622462B4692
:1029C00007F045FB824607F016FD00900199FFF7DE
:1029D0000CFC8648006840F6C411884202DA0020E8
:1029E00083490870824800788249097888420FD16B
:1029F0007E48006840F6B831884209DD7E4800789C
:102A000030B97C4800787D49087001207A49087007
:102A10007B480078C0B97B4801687B48006807F0B4
:102A20004EFA07464FF0804107F0D3FA0546774843
:102A3000006807F094FC0646294607F040FA044671
:102A400007F0ACFC7149086070480068704909687B
:102A5000884231DB0020664908700120684908700F
:102A60006C48007840BB6C48007801280FD10021E9
:102A70000846FFF7BAFBC82004F041FE6749484208
:102A8000FFF7B3FB4FF4FA7004F039FE0FE00021BA
:102A90000846FFF7AAFBC82004F031FE4FF4FA61A4
:102AA0004842FFF7A2FB4FF4FA7004F028FE012021
:102AB0005B4908705749087059480078012818D1B7
:102AC000504801685048006807F0F9F907464FF090
:102AD000804107F07EFA05464448006807F03FFC55
:102AE0000646294607F0EBF9044607F057FC3F4934
:102AF00008603E4800684B490968884236DB002080
:102B0000474908704848007880BB3C4800783949FC
:102B10000978884212D100210846FFF766FBC820D9
:102B200004F0EDFD3D494842FFF75FFB4FF4FA70BA
:102B300004F0E5FD01203D49087012E0002108463F
:102B4000FFF753FBC82004F0DAFD4FF4FA61484266
:102B5000FFF74BFB4FF4FA7004F0D1FD002033492E
:102B600008700120324908702F49087030480078F9
:102B7000012818D1234801682348006807F09FF90D
:102B800007464FF0804107F024FA054629480068BF
:102B900007F0E5FB0646294607F091F9044607F0E1
:102BA000FDFB2449086023480068234909688842DE
:102BB00074DB2248007858B921480078012864D095
:102BC00000201B49087000210846FFF70EFB39E082
:102BD00064E0000091080020CE0A00207C0800205C
:102BE0009A9999999999B93F9999C93FDC08002018
:102BF000D40A002024000020A6080020A4080020F9
:102C0000D20800201400002010000020D40800206A
:102C100060090020A5080020F60A002030F8FFFF18
:102C2000D808002068090020D9080020EB080020FF
:102C3000E0080020E408002070090020E1080020DE
:102C4000020B00200020FE49086000BF4FF4006125
:102C5000FC4805F04AFC0028F8D0C82004F04FFDDD
:102C60000120F74908604FF4FA614842FFF7BDFAC6
:102C70004FF47A7004F043FDC82004F040FD0120B9
:102C8000F1490870F149087008E000210846FFF793
:102C9000ACFA0020EA49086000BFFEE7EB48007884
:102CA000012818D1EA480168EA48006807F007F9E6
:102CB00007464FF0804107F08CF90546E64800686A
:102CC00007F04DFB0646294607F0F9F8044607F0E1
:102CD00065FBE1490860E0480068E049096888420E
:102CE0002DDB0020D9490870DD48007838BBDD486D
:102CF000007878B900210846FFF777FAC82004F079
:102D0000FEFCD9494842FFF770FA4FF4FA7004F01C
:102D1000F6FC0FE000210846FFF767FAC82004F030
:102D2000EEFC4FF4FA614842FFF75FFA4FF4FA7095
:102D300004F0E5FC0120CA490870CC490870CB4872
:102D40000078012818D1C2480168C248006807F01D
:102D5000B6F807464FF0804107F03BF90546C448F6
:102D6000006807F0FCFA0646294607F0A8F8044672
:102D700007F014FBBE490860BD480068BD490968FA
:102D800088422EDB0020B9490870BB48007840BB60
:102D9000BA480078012810D100210846FFF725FA2B
:102DA000C82004F0ACFC4FF4FA614842FFF71DFA6A
:102DB0004FF4FA7004F0A3FC0EE000210846FFF780
:102DC00014FAC82004F09BFCA7494842FFF70DFA0B
:102DD0004FF4FA7004F093FC0120A9490870A64949
:102DE0000870A7480078012818D1994801689948C7
:102DF000006807F064F807464FF0804107F0E9F8F3
:102E00000546A048006807F0AAFA0646294607F0DA
:102E100056F8044607F0C2FA9A49086099480068D3
:102E20009949096888420CDB002095490870002107
:102E30000846FFF7DAF900208149091D086000BF44
:102E4000FEE7BDE8FC9F2DE9FC5F90480078012873
:102E50007DD18F48807801280BD18D48407840B9CA
:102E60008B48C07828B98B4801680068FFF7BDF926
:102E70001BE187484078012837D185480078002831
:102E800033D18448006807F078FA8246824A834B3F
:102E900007F084F906460F467E48006807F06DFA91
:102EA000804632463B4607F0D2F8044607F0A3FAC4
:102EB00001907848006807F060FA8246764A774BBE
:102EC00007F06CF906460F467248006807F055FA9D
:102ED000804632463B4607F05BF9044607F08BFA22
:102EE00000900199FFF781F9DFE069480078012837
:102EF00035D16848006807F040FA8246664A684B58
:102F000007F04CF904460D466248006807F035FAB0
:102F1000064622462B4607F09AF8804607F06BFAE1
:102F200001905C48006807F028FA80465A4A5C4BDA
:102F300007F034F906460F465648006807F01DFAB8
:102F4000824632463B4607F023F9044600E00FE391
:102F500007F051FA00900199FFF747F9A5E04C48B6
:102F6000C078012837D14A48007998BB49480068A1
:102F700007F003FA8246484A484B07F00FF98046AB
:102F800089464448006807F0F8F9064642464B4631
:102F900007F0FEF8044607F02EFA01903D4800685D
:102FA00007F0EBF982463C4A3C4B07F0F7F806463F
:102FB0000F463848006807F0E0F9804632463B4645
:102FC00007F045F8044607F016FA00900199FFF75C
:102FD0000CF96AE0FFE72E480079012865D12D48F9
:102FE000006807F0CAF980462B4A2D4B07F0D6F847
:102FF00004460D462748006807F0BFF906462246FA
:103000002B4607F0C5F8824607F0F5F901902148F4
:10301000006807F0B2F980461F4A214B07F0BEF85E
:1030200004460D461B48006807F0A7F906462246ED
:103030002B4607F00CF8824607F0DDF9009031E0EE
:10304000A801224200080140E1080020EA0800200F
:103050001400002010000020EC080020740900205B
:10306000F0080020EB08002030F8FFFFF1080020F6
:10307000F40800206C090020F8080020F60A00205F
:10308000F9080020FC0800206409002091080020B5
:10309000CE0A00207C0800209A9999999999B93F05
:1030A0009999C93F0199FFF7A0F8FE48006844F2DA
:1030B0005061884202D20020FB490870FA4800782B
:1030C000FA49097888420FD1F648006844F2506105
:1030D000884209D9F648007830B9F4480078F549B3
:1030E00008700120F2490870F3480078C0B9F3482D
:1030F0000168F348006806F0E2FE07464FF08041A1
:1031000006F067FF0546E748006807F031F9064614
:10311000294606F0D4FE044607F059F9E149086053
:10312000E0480068E749096888426FD30120E24916
:103130000870E5480078002868D1E4480078012844
:1031400037D0DC480078D9490978884215D1002168
:103150000846FFF74AF8C82004F0D1FADC49484293
:10316000FFF743F84FF4487004F0C9FA0020D9493A
:1031700008700120D849087015E000210846FFF7C3
:1031800034F8C82004F0BBFA4FF4FA614842FFF764
:103190002CF84FF4487004F0B2FA0020CF490870C0
:1031A0000120CF4908700120CE490870C649087037
:1031B0002CE0CD48007802280FD100210846FFF707
:1031C00014F8C82004F09BFAC1494842FFF70DF8F3
:1031D0004FF4487004F093FA13E0C34800780328D2
:1031E0000FD100210846FFF700F8C82004F087FA45
:1031F0004FF4FA614842FEF7F8FF4FF4487004F0CC
:103200007EFA0120B9490870AF490870B5480078C6
:10321000012846D1A9480168A948006806F04FFE78
:1032200007464FF0804106F0D4FE0546B0480068DE
:1032300007F09EF80646294606F041FE044607F0D0
:10324000C6F8AB49086008460068AA490968884280
:1032500027D300210846FEF7C8FF0020A6490860D2
:1032600000BF4FF40061A54805F03FF90028F8D0F1
:103270000120A1490860C82004F041FA4FF4FA6126
:103280004842FEF7B2FF4FF47A7004F038FA4FF478
:10329000C87004F034FA002092490870012098495F
:1032A00008709748007801284ED184480168844806
:1032B000006806F004FE07464FF0804106F089FEE4
:1032C00005469048006807F053F80646294606F080
:1032D000F6FD044607F07BF88A4908600846006856
:1032E0008949096888422FD37D480078012812D186
:1032F00000210846FEF779FFC82004F000FA74495F
:103300004842FEF772FF4FF4FA7004F0F8F900201B
:103310007349087012E000210846FEF766FFC820D6
:1033200004F0EDF94FF4FA614842FEF75EFF4FF406
:10333000FA7004F0E4F9002067490870012073492D
:10334000087000206E4908707048007801282AD162
:103350005A4801685A48006806F0B1FD07464FF028
:10336000804106F036FE05466948006807F000F81F
:103370000646294606F0A3FD044607F028F86449EE
:103380000860084600686349096888420BD3002139
:103390000846FEF72AFF00205749091D08605B49CF
:1033A000087000BFFEE751480078012818D1434853
:1033B00001684348006806F082FD07464FF08041EF
:1033C00006F007FE05465448006806F0C8FF0646AA
:1033D000294606F074FD044606F0E0FF4E490860F9
:1033E0004D4800684D490968884247DB00203F4945
:1033F00008704B480078E8BB00210846FEF7F5FE50
:1034000000203D490831086000BF46480078052883
:10341000FBD101203849083108604FF4FA61484275
:10342000FEF7E3FE4FF47A7004F069F900210846D4
:10343000FEF7DBFE4FF47A7004F061F94FF47A7016
:1034400004F05DF94FF47A7004F059F94FF47A7092
:1034500004F055F94FF47A7004F051F94FF47A7092
:1034600004F04DF940F2DC514842FEF7BEFE012067
:103470002B4900E002E008702B4908702A480078C8
:10348000012860D10D4801680D48006806F017FD5D
:1034900007464FF0804106F09CFD05462348006832
:1034A00046E00000B8080020D40A002024000020D4
:1034B000A6080020A4080020D10800201400002045
:1034C0001000002078090020A5080020E90A00204B
:1034D00030F8FFFF9F080020A10800209E08002070
:1034E000A0080020C5080020EA0A0020900900205A
:1034F000C808002080090020A801224200080140DD
:10350000C4080020BC08002084090020D008002046
:10351000C00800207C090020940900208C090020AC
:1035200091090020030B0020980900209C0900202D
:1035300006F015FF0646294606F0C1FC044606F0D3
:103540002DFFFE490860FD480068FD490968884272
:103550000EDB0020FB490870FB48007840B90021D1
:103560000846FEF742FE0020F849086000BFFEE76B
:10357000BDE8FC9F2DE9FC5FF548007801287DD16E
:10358000F448807801280BD1F248407840B9F148DE
:10359000C07828B9F04801680068FEF726FEE8E028
:1035A000EC484078012837D1EA480078002833D128
:1035B000E948006806F0E1FE8246E84AE84B06F07A
:1035C000EDFD06460F46E448006806F0D6FE80464C
:1035D00032463B4606F03BFD044606F00CFF0190E8
:1035E000DD48006806F0C9FE8246DC4ADC4B06F086
:1035F000D5FD06460F46D848006806F0BEFE804658
:1036000032463B4606F0C4FD044606F0F4FE009048
:103610000199FEF7EAFDACE0CE480078012835D1EB
:10362000CD48006806F0A9FE8246CC4ACD4B06F094
:10363000B5FD80468946C848006806F09EFE0646ED
:1036400042464B4606F003FD044606F0D4FE0190C8
:10365000C148006806F091FE0646C04AC14B06F01C
:103660009DFD04460D46BC48006806F086FE804677
:1036700022462B4606F08CFD824600E0B1E106F0C2
:10368000BAFE00900199FEF7B0FD72E0B148C07833
:10369000012837D1AF48007998BBAF48006806F0E1
:1036A0006CFE8246AD4AAE4B06F078FD04460D46F0
:1036B000A948006806F061FE064622462B4606F041
:1036C00067FD804606F097FE0190A348006806F06B
:1036D00054FE8046A14AA24B06F060FD04460D460A
:1036E0009D48006806F049FE064622462B4606F035
:1036F000AEFC824606F07FFE00900199FEF775FD54
:1037000037E0FFE793480079012832D192480068FA
:1037100006F033FE8046914A924B06F03FFD044688
:103720000D468D48006806F028FE064622462B46C8
:1037300006F02EFD824606F05EFE01908648006887
:1037400006F01BFE8046854A864B06F027FD0446A0
:103750000D468148006806F010FE064622462B46BC
:1037600006F075FC824606F046FE00900199FEF7D1
:103770003CFD7D480078C0B97C4801687C48006801
:1037800006F09DFB07464FF0804106F022FC0546FF
:103790007848006806F0E3FD0646294606F08FFBF0
:1037A000044606F0FBFD73490860724800687249E0
:1037B0000968884219DB01206B4908706F4800785E
:1037C00098B900210846FEF710FDC82003F097FFC6
:1037D0006B494842FEF709FD4FF4FA7003F08FFF82
:1037E000012066490870674908706648007801281A
:1037F00018D15E4801685E48006806F060FB074625
:103800004FF0804106F0E5FB05465F48006806F092
:10381000A6FD0646294606F052FB044606F0BEFD0C
:1038200059490860584800685849096888422DDBA2
:103830000020544908705648007838BB00210846DB
:10384000FEF7D3FC00204149086000BF4FF400613F
:10385000504804F04AFE0028F8D001203B49086097
:103860004FF4FA7003F04BFF4FF4FA614842FEF751
:10387000BCFC4FF47A7003F042FF4FF4C87003F0C1
:103880003EFF0120424908704349087042480078D1
:10389000012818D1354801683548006806F00FFB4B
:1038A00007464FF0804106F094FB05463B48006810
:1038B00006F055FD0646294606F001FB044606F0D3
:1038C0006DFD364908603548006835490968884209
:1038D0001ADB00203049087032480078A0B9002176
:1038E0000846FEF782FCC82003F009FF4FF4FA6196
:1038F0004842FEF77AFC4FF4487003F000FF0120C5
:10390000284908702849087027480078012853D1B1
:10391000164801681648006806F0D1FA07464FF0CD
:10392000804106F056FB05462048006806F017FD6A
:103930000646294606F0C3FA044639E09C090020F1
:10394000880900209809002099090020A801224236
:1039500091080020CE0A00207C0800209A999999AD
:103960009999B93F9999C93F300900201400002066
:1039700010000020340900205009002031090020E7
:1039800030F8FFFF380900203C09002058090020CA
:1039900039090020000801404009002044090020A6
:1039A0005C09002041090020480900204C09002042
:1039B00006F0F4FCFE490860FD480068FD4909680E
:1039C00088420EDB0020FC490870FC48007840B9B2
:1039D00000210846FEF709FC0020F949086000BFF5
:1039E000FEE7BDE8FC9F2DE9FC5FF6480078012862
:1039F0007DD1F548807801280BD1F348407840B953
:103A0000F148C07828B9F14801680068FEF7EDFB7D
:103A1000E8E0ED484078012837D1EB4800780028ED
:103A200033D1EA48006806F0A8FC8246E84AE94B30
:103A300006F0B4FB06460F46E448006806F09DFC1D
:103A4000804632463B4606F002FB044606F0D3FCB5
:103A50000190DE48006806F090FC8246DC4ADD4BAF
:103A600006F09CFB06460F46D848006806F085FC29
:103A7000804632463B4606F08BFB044606F0BBFC14
:103A800000900199FEF7B1FBACE0CF480078012827
:103A900035D1CE48006806F070FC8246CC4ACE4B49
:103AA00006F07CFB80468946C848006806F065FC45
:103AB000064642464B4606F0CAFA044606F09BFC10
:103AC0000190C248006806F058FC0646C04AC24B46
:103AD00006F064FB04460D46BC48006806F04DFC49
:103AE000804622462B4606F053FB824600E0B3E1B7
:103AF00006F081FC00900199FEF777FB72E0B24876
:103B0000C078012837D1B048007998BBAF48006829
:103B100006F033FC8246AE4AAE4B06F03FFB04464D
:103B20000D46AA48006806F028FC064622462B46A9
:103B300006F02EFB804606F05EFC0190A34800686C
:103B400006F01BFC8046A24AA24B06F027FB044667
:103B50000D469E48006806F010FC064622462B469D
:103B600006F075FA824606F046FC00900199FEF7D1
:103B70003CFB37E0FFE794480079012832D19348B5
:103B8000006806F0FAFB8046914A934B06F006FB6C
:103B900004460D468D48006806F0EFFB06462246B7
:103BA0002B4606F0F5FA824606F025FC0190874880
:103BB000006806F0E2FB8046854A874B06F0EEFA85
:103BC00004460D468148006806F0D7FB06462246AB
:103BD0002B4606F03CFA824606F00DFC0090019957
:103BE000FEF703FB7D480078C0B97D4801687D4839
:103BF000006806F064F907464FF0804106F0E9F9E5
:103C000005467948006806F0AAFB0646294606F0F4
:103C100056F9044606F0C2FB734908607248006812
:103C20007249096888421ADB01206C4908707048A3
:103C30000078A0B900210846FEF7D7FAC82003F0A3
:103C40005EFD4FF4FA614842FEF7CFFA4FF4487038
:103C500003F055FD01206649087066490870654803
:103C60000078012818D15E4801685E48006806F0B7
:103C700026F907464FF0804106F0ABF905465E484D
:103C8000006806F06CFB0646294606F018F9044663
:103C900006F084FB5849086057480068574909688E
:103CA00088422FDB0020534908705548007848BBF4
:103CB00000210846FEF799FA00204149091F0860D3
:103CC00000BF4FF400614F4804F00FFC0028F8D00B
:103CD00001203B49091F08604FF4FA7003F00FFD03
:103CE0004FF4FA614842FEF780FA4FF47A7003F01D
:103CF00006FD4FF4C87003F002FD01204049087032
:103D00004149087040480078012818D134480168BA
:103D10003448006806F0D3F807464FF0804106F0BB
:103D200058F905463948006806F019FB0646294649
:103D300006F0C5F8044606F031FB34490860334804
:103D4000006833490968884219DB00202E49087051
:103D50003048007898B900210846FEF746FAC82096
:103D600003F0CDFC2C494842FEF73FFA4FF4FA70BD
:103D700003F0C5FC0120274908702849087027482E
:103D80000078012853D1164801681648006806F0EB
:103D900096F807464FF0804106F01BF9054620488B
:103DA000006806F0DCFA0646294606F088F839E095
:103DB0004C0900205409002048090020490900202E
:103DC000AC01224291080020CE0A00207C0800208D
:103DD0009A9999999999B93F9999C93F00090020F1
:103DE00014000020100000200409002020090020F9
:103DF00001090020080900200C09002028090020E2
:103E000009090020000801401009002014090020C1
:103E10002C0900201109002030F8FFFF18090020AC
:103E20001C090020044606F0B9FA6249086061489E
:103E300000686149096888420EDB00205F4908700C
:103E40005F48007840B900210846FEF7CEF900200F
:103E50005C49086000BFFEE7BDE8FC9F70B520200C
:103E600005F0B6F800286BD0574A5849584802F078
:103E70003AFC002861D1022000F059F94442204662
:103E800006F06DFA53490860032000F050F904462B
:103E900006F065FA50490860084601684D48006818
:103EA00006F00DF804464FF0804106F092F84B49B9
:103EB00008604B48006806F05BFA05464548016813
:103EC000284605F0FCFF044606F081FA44490860E4
:103ED0004448006806F04CFA05463F480168284609
:103EE00005F0EDFF044606F072FA3E4908603E48D0
:103EF0000078012804D13D480068401C3B49086017
:103F000040F6AC503A4908603A480078012802D19E
:103F1000FFF769FD05E038480078012801D1FFF777
:103F200029FB36480078012801D1FEF78CFF344880
:103F30000078012801D1FEF74DFC202005F059F84A
:103F400070BD1FB50121092004F0F8FC48208DF850
:103F500007002020ADF8040003208DF8060001A919
:103F6000284804F02FFA4FF4A06004F04FFF172008
:103F70008DF8000002208DF8010000208DF802006D
:103F800001208DF80300684604F045FF052101205B
:103F900004F02EFB2020029001208DF80E0000205E
:103FA0008DF80C000C208DF80D0002A804F0AAFF7B
:103FB0001FBD00001C090020240900201809002052
:103FC00019090020AC012242080000200400002052
:103FD0000000002010000020140000200C00002031
:103FE000B0080020B4080020A7080020980800208E
:103FF0007C080020CC0A0020CD0A0020A308002065
:10400000000B0020000C014000B587B00121042006
:1040100004F094FC0121084604F09DFC04208DF876
:104020001B000320ADF8180006A95C4804F0CAF98B
:1040300003A805F0E7FB0020ADF81200ADF80E0074
:104040004FF6FF70ADF810000020ADF80C0003A98A
:104050004FF0804005F0AAF800231A4603214FF0E4
:10406000804005F0B2FC684605F0DFFB0A20ADF8A1
:1040700008006946400705F02CFB01221146900715
:1040800005F00BFC00214FF0804005F07FFE012180
:10409000880705F0E7FB07B000BD00B587B0012138
:1040A000042004F04BFC0121022004F054FC042005
:1040B0008DF81B00C020ADF8180006A9374804F0A1
:1040C00081F903A805F09EFB0020ADF81200ADF8C1
:1040D0000E004FF6FF70ADF810000020ADF80C0098
:1040E00003A92F4805F062F800231A4603212C4843
:1040F00005F06BFC684605F098FB0A20ADF8080057
:104100006946274805F0E5FA0121254805F070FECB
:1041100001221146224805F0C0FB0021204805F08D
:1041200035FE01211E4805F09DFB07B000BD70B5AE
:104130000546022D02D0032D14D10AE04FF0804035
:1041400005F047FE04B200214FF0804005F01EFE4E
:104150000AE0134805F03DFE04B20021104805F0C6
:1041600015FE01E0002400BF00BF204670BD10B561
:104170000121880705F03FFE18B10121880705F0ED
:104180004BFE10BD10B50121054805F034FE18B1F5
:104190000121034805F040FE10BD00000008014069
:1041A0000004004000B589B0012142F2110004F082
:1041B000C5FB18208DF823004FF47070ADF8200077
:1041C00003208DF8220008A9274804F0FBF805A871
:1041D00005F018FB0020ADF81A00ADF8160044F603
:1041E0001F60ADF818004720ADF8140005A91F485E
:1041F00004F0DCFF6020ADF804000020ADF80C00F6
:104200000120ADF806000020ADF80A0001A917480A
:1042100005F009F801A9154805F047F801A9134868
:1042200005F090F801A9114805F0D7F801210F48D1
:1042300005F024FB08210D4805F044FC08210B483B
:1042400005F049FC0821094805F052FC08210748FF
:1042500005F057FC0121054805F004FC0121034845
:1042600005F000FB09B000BD001001400034014022
:1042700008B54FF4E06004F0C9FD36208DF8000069
:1042800000208DF8010003208DF8020001208DF838
:104290000300684604F0BFFD08BD0EB501211020E3
:1042A00004F059FB40F2E730ADF804004720ADF8C8
:1042B00000006946104804F079FF01210E4805F01E
:1042C00097FD012211460C4805F0E7FA01210A4842
:1042D00005F0C8FA0EBD10B5FFF7CAFFFFF7DDFF06
:1042E00010BD10B50121044805F085FD18B101216C
:1042F000014805F091FD10BD0010004070B501248B
:104300000123EFA204210020FCF723FB0123EFA2ED
:1043100005210020FCF71DFB0123EFA20621002050
:10432000FCF717FB0CE02246641C012305213C200E
:10433000FDF78FF801232A4606212A20FDF789F888
:1043400002F084F90500EED1C8240123E4A204217F
:10435000FCF7FFFAFDF738FD70BD70B505460C4659
:10436000FEF72EF9D020FEF7D5F9FEF766F918B161
:10437000FEF744F9012070BD2846FEF7CBF9FEF7A1
:104380005CF92046FEF7C6F9FEF757F918B1FEF7BB
:1043900035F90120EFE7FEF731F90020EBE770B5C2
:1043A00004460025BC2C01D3012510E0622C01D36A
:1043B00002250CE02A2C01D3032508E0142C01D39C
:1043C000042504E00A2C01D3052500E00625294632
:1043D0001A20FFF7C2FF70BD70B50446B4F57A7FAE
:1043E00001D94FF47A74042C00D204244FF47A706B
:1043F000B0FBF4F0401EC5B229461920FFF7ADFF0F
:1044000005466008FFF7CBFF70BD70B50446FEF7A8
:10441000D7F8D020FEF77EF9FEF70FF92046FEF719
:1044200079F9FEF70AF9FEF7CBF8D120FEF772F919
:10443000FEF703F90020FEF796F90546FEF7DEF8D1
:10444000284670BD10B50446E006010E1C20FFF79B
:1044500084FF10BD10B50446E006010E1B20FFF7D7
:104460007CFF10BD10B5FEF798F880216B20FFF798
:1044700074FF642003F043F900216B20FFF76DFF08
:104480000320FFF7E7FF0020FFF7DCFF3220FFF7F4
:10449000A3FF00213820FFF760FF00216A20FFF70B
:1044A0005CFF00212320FFF758FF80213720FFF712
:1044B00054FF7520FFF7A9FF0446682C0BD101219A
:1044C0006B20FFF74AFF00216C20FFF746FF3220E8
:1044D000FFF782FF07E0012384A202210020FCF7FE
:1044E00038FA012010BD012383A202210020FCF72D
:1044F00030FA0020F6E72DE9F04106460F46144653
:104500001D46FEF75DF8002141EA4601C8B2FEF7FC
:1045100001F9FEF792F820B1FEF770F80120BDE82E
:10452000F0813846FEF7F6F8FEF787F8FEF748F810
:10453000012101EB4601C8B2FEF7ECF8FEF77DF869
:104540000DE0012C04D10020FEF70DF9287003E0E6
:104550000120FEF708F92870601EC4B26D1C002C03
:10456000EFD1FEF74BF80020D9E72DE9F84F6B4665
:10457000022241216820FFF7BEFF9DF801009DF84F
:10458000001040EA01200FFA80FA504605F0F5FECF
:10459000804600225B4B05F073FE06465A4A5B4B91
:1045A00005F055FD044605F058FF83465849584626
:1045B00005F0DDFC044605F0F1FE00B2BDE8F88F21
:1045C0002DE9FC4104460D4616466B460622432162
:1045D0006820FFF790FF0746BFB99DF801009DF8DE
:1045E000001040EA012000B220809DF803009DF8F1
:1045F000021040EA012000B228809DF805009DF8D5
:10460000041040EA012000B230803846BDE8FC8149
:104610002DE9FC4104460D4616466B4606223B2119
:104620006820FFF768FF0746BFB99DF801009DF8B5
:10463000001040EA012000B220809DF803009DF8A0
:10464000021040EA012000B228809DF805009DF884
:10465000041040EA012000B230803846BDE8FC81F9
:104660002DE9F04105460E4617469846FDF7A8FF8E
:10467000002141EA4501C8B2FEF74CF8FDF7DDFF25
:1046800020B1FDF7BBFF0120BDE8F0813046FEF709
:1046900041F8FDF7D2FF00240CE018F80400FEF703
:1046A00039F8FDF7CAFF18B1FDF7A8FF0120EBE7C5
:1046B000601CC4B2BC42F0DBFDF7A0FF0020E3E7C2
:1046C000444D5020696E672E2E2E00004174746593
:1046D0006D7074733A0000004572726F723A000098
:1046E000444D50204F4B2120202020004D50553666
:1046F00030353020657272004D50553630353020DF
:104700004F4B210000407540A4703D0AD743424002
:104710000000C84238B50446FB4890F82400C0B1F8
:1047200014B10220009001E000200090F64A1268C7
:10473000D17BF54A526810786B460122FFF790FF53
:1047400010B14FF0FF3038BD9DF80010EE484174B5
:1047500023E0ED48807A10B94FF0FF30F3E724B141
:10476000E948407C08B10020EDE714B10120009039
:1047700001E000200090E44A1268D17BE24A5268CE
:1047800010786B460122FFF76BFF10B14FF0FF303E
:10479000D9E79DF80010DC4841740020D3E738B514
:1047A000002419E0D8480068C07AA04204D0D64856
:1047B0000068407DA04200D10CE0D34949680878E8
:1047C0006B4601222146FFF796FE10B14FF0FF30F5
:1047D00038BD00BF601CC4B2CB4840680079A0421D
:1047E000E0DC0020F4E770B504460D46C6480068DA
:1047F000C07AA04204D0C4480068407DA04202D1E3
:104800004FF0FF3070BDC04840680079A04202DC24
:104810004FF0FF30F6E7BC49496808782B46012283
:104820002146FFF768FEEDE738B50446B64890F834
:104830002300A04201D1002038BD14B130200090E7
:1048400001E000200090B048807C20B19DF800007D
:1048500040F002000090AC4890F8220020B19DF892
:10486000000040F080000090A74A1268117DA64A1F
:10487000526810786B460122FFF7F2FE10B14FF03C
:10488000FF30D9E7A04880F823400020D4E738B5AE
:10489000044604F0700010B10120009005E014B14E
:1048A0000020009001E040200090974A1268917C1F
:1048B000954A526810786B460122FFF7D1FE20B16D
:1048C000002191488172481E38BD9DF8000020F0FB
:1048D00040018D4801730020009004F0400020B991
:1048E0009DF8000040F00400009004F0200020B982
:1048F0009DF8000040F00200009004F0100020B984
:104900009DF8000040F00100009004F0080020B97C
:104910009DF8000040F0380000907B4A1268D17C7E
:10492000794A526810786B460122FFF799FE20B150
:10493000002175488172481EC6E724B1082C02D0B8
:104940000020FFF771FF704884720021017532204A
:1049500002F0D5FE0020B7E738B504466A48807CEF
:10496000A04201D1002038BD002C46D0664A126812
:104970001179654A526810786B460122FFF7BBFD3A
:1049800010B14FF0FF30EEE79DF8000020F020005E
:1049900000905D4A126811795B4A526810786B4644
:1049A0000122FFF75DFE10B14FF0FF30DBE703207F
:1049B00002F0A5FE02200090534890F8220020B19A
:1049C0009DF8000040F0800000904F4890F82300D0
:1049D00020B19DF8000040F0300000904A4A126873
:1049E000117D494A526810786B460122FFF738FE64
:1049F000002851D04FF0FF30B5E7434A12681179D3
:104A0000414A526810786B460122FFF774FD10B1DD
:104A10004FF0FF30A7E73C48807A00F0010028B152
:104A20009DF8000040F02000009004E09DF8000098
:104A300020F020000090344A12681179324A5268FE
:104A400010786B460122FFF70BFE10B14FF0FF30DC
:104A500089E7032002F053FE2B4890F8220010B1A2
:104A60008020009001E000200090274890F823006B
:104A700020B19DF8000040F030000090224A1268FA
:104A8000117D214A526810786B460122FFF7E8FD3C
:104A900010B14FF0FF3066E71B488474002062E7D6
:104AA00008B51948807A10B94FF0FF3008BD0020D2
:104AB0000090154A1268D17B134A526810786B46F1
:104AC0000122FFF7CDFD10B14FF0FF30EEE70E4AA7
:104AD000126851790C4A526810786B460122FFF730
:104AE000BFFD10B14FF0FF30E0E7074A12681179BF
:104AF000054A526810786B460122FFF7B1FD28B1D4
:104B00004FF0FF30D2E70000A0090020F74890F8EE
:104B10002400002853D00C200090F44A1268117928
:104B2000F24A526810786B460122FFF799FD10B1E6
:104B30004FF0FF30BAE7322002F0E1FDC0200090D4
:104B4000EA48807A00F0010020B19DF8000040F0B2
:104B500020000090E54A12681179E44A5268107802
:104B60006B460122FFF77CFD10B14FF0FF309DE74F
:104B7000DE48407C10B10220009001E0002000904F
:104B8000DA4A1268D17BD94A526810786B46012202
:104B9000FFF766FD10B14FF0FF3087E7002000906F
:104BA000D24A12685179D14A526810786B46012274
:104BB000FFF756FD002855D04FF0FF3076E7042070
:104BC0000090CA4A12681179C84A526810786B4638
:104BD0000122FFF745FD10B14FF0FF3066E7C348F3
:104BE000807C20B9C148807A00F0010010B94020D3
:104BF000009001E060200090BC4A12681179BB4A25
:104C0000526810786B460122FFF72AFD10B14FF071
:104C1000FF304BE7322002F072FDB448407C10B107
:104C20000120009001E000200090B04A1268D17B82
:104C3000AE4A526810786B460122FFF711FD10B1A1
:104C40004FF0FF3032E7A94A12685179A74A5268FB
:104C50001078A64B10330122FFF702FD10B14FF080
:104C6000FF3023E7002021E770B50446002624F03A
:104C700001049E4890F8240008B1002070BD9B48B4
:104C8000807A10B94FF0FF30F8E79848057C807AB9
:104C90002040964908740846007CA04202D04FF09C
:104CA000FF3600E0002614B99048007D18B10120BD
:104CB000FFF730FD02E00020FFF72CFD3CB1FFF7CD
:104CC000EFFE20B1894805744FF0FF30D6E730463B
:104CD000D4E738B504468548807A10B94FF0FF30E4
:104CE00038BDBC2C02DB0120009015E0622C02DBF9
:104CF0000220009010E02A2C02DB032000900BE041
:104D0000142C02DB0420009006E00A2C02DB0520B4
:104D1000009001E0062000907448C07A9DF80010D1
:104D2000884201D10020DBE7704A126891786F4A0F
:104D3000526810786B460122FFF792FC10B14FF0D9
:104D4000FF30CDE79DF800106848C1720020C7E72A
:104D500038B50446282C02DD4FF0FF3038BDDCB9F1
:104D60000020FFF761FD00208DF8000007208DF87E
:104D700001005E4A1268917C5C4A526810786B466A
:104D80000222FFF76DFC10B14FF0FF30E6E7002183
:104D9000564801750020E1E70120FFF745FD20207E
:104DA0008DF80000012C06D100208DF801000520AF
:104DB000FFF78FFF17E0052C06DC01208DF80100BE
:104DC0000520FFF786FF0EE0142C06DC02208DF88C
:104DD00001000A20FFF77DFF05E003208DF80100A8
:104DE0001420FFF776FF9DF80100072101EB8010EA
:104DF000C0B28DF801003D4A1268917C3B4A52686E
:104E000010786B460222FFF72BFC10B14FF0FF30F9
:104E1000A4E7082135488172002101730121017541
:104E20000020FFF721FF002098E738B504462F48FF
:104E3000807A10B94FF0FF3038BD2C4890F824002C
:104E400010B14FF0FF30F7E72848007D50B134B182
:104E5000282C04DCE0B2FFF77BFF0020ECE7002009
:104E6000FFF776FF042C01DA042404E0B4F57A7F1E
:104E700001DD4FF47A744FF47A7090FBF4F0401E29
:104E8000C0B20090194A12685178184A52681078D6
:104E90006B460122FFF7E4FB10B14FF0FF30CBE788
:104EA0009DF80000401C4FF47A7191FBF0F081B244
:104EB0000E48C1810146C9894810FFF70AFF00204A
:104EC000BAE738B504460948807A10B94FF0FF3088
:104ED00038BD022C06D0042C0AD0082C0BD0102C84
:104EE0000FD10BE0002000900EE00000A009002090
:104EF0000820009008E01020009005E018200090A5
:104F000002E04FF0FF30E3E700BFF848407A9DF839
:104F10000010B0EBE10F01D10020D9E7F34A12688D
:104F2000D179F24A526810786B460122FFF798FB5C
:104F300010B14FF0FF30CBE79DF80000C110EB48F7
:104F400041720020C4E738B50446E848807A10B9B9
:104F50004FF0FF3038BDFA2C09D0B4F5FA7F09D0F4
:104F6000B4F57A7F09D0B4F5FA6F0CD108E00020CF
:104F700000900BE00820009008E01020009005E071
:104F80001820009002E04FF0FF30E3E700BFD74861
:104F9000007A9DF80010B0EBE10F01D10020D9E7B5
:104FA000D24A12689179D14A526810786B46012230
:104FB000FFF756FB10B14FF0FF30CBE79DF8000034
:104FC000C010CA4908720020C4E71CB580208DF8C3
:104FD0000000C64A1268917CC44A526810786B4639
:104FE0000122FFF73DFB10B14FF0FF301CBD6420E4
:104FF00002F085FB00208DF80000BC4A1268917C0D
:10500000BA4A526810786B460122FFF729FB10B1AB
:105010004FF0FF30EAE7B54A1268917DB34A526813
:1050200010786B460622FFF766FA10B14FF0FF309A
:10503000DCE79DF80500C007400F9DF8031001F064
:10504000010140EA41009DF8011001F0010140EA30
:10505000010474B1012C03D10121A448C17427E0DB
:10506000022C03D10021A148C17421E04FF0FF3090
:10507000BCE79E4A1268D1789C4A526810786B4609
:105080000122FFF738FA10B14FF0FF30AEE79DF87C
:10509000000000F00F0414B94FF0FF30A6E7042C15
:1050A00003D101219148C17402E000218F48C174ED
:1050B000FF218E488172FF208C490872FF218B48A6
:1050C0004172C1724FF6FF71C181FF210174817479
:1050D0000121017380F82210002180F8231041750E
:1050E00001751630016041608160163880F8241027
:1050F00080F82510C1844FF4FA60FFF724FF10B147
:105100004FF0FF3072E70220FFF7DBFE10B14FF0E7
:10511000FF306BE72A20FFF7DCFD10B14FF0FF30C6
:1051200064E73220FFF781FE10B14FF0FF305DE7FA
:105130000020FFF799FD10B14FF0FF3056E7002037
:10514000FFF70AFC10B14FF0FF304FE70020FFF7E8
:105150009EFB00204AE770477CB504460D46634835
:10516000807A00F0700010B94FF0FF307CBD5F4ACC
:105170001268117B5D4A526810786B460622FFF771
:10518000BAF910B14FF0FF30F0E79DF801009DF83B
:10519000001040EA012000B220809DF803009DF835
:1051A000021040EA012000B260809DF805009DF8E1
:1051B000041040EA012000B2A08015B12846FFF794
:1051C000CAFF0020D2E77CB504460D464748807AE6
:1051D00000F0080010B94FF0FF307CBD434A126860
:1051E000517B424A526810786B460622FFF783F9DA
:1051F00010B14FF0FF30F0E79DF801009DF800106E
:1052000040EA012000B220809DF803009DF80210C2
:1052100040EA012000B260809DF805009DF804106E
:1052200040EA012000B2A08015B12846FFF793FFA5
:105230000020D2E72DE9FE4F05460C462B48807A28
:1052400018B94FF0FF30BDE8FE8F284A1268917BF5
:10525000264A5268107802AB0222FFF74CF910B1CF
:105260004FF0FF30EFE79DF809009DF8081040EA85
:10527000012006B214B12046FFF76DFF1B494968B3
:10528000C88805F075F8194901904968B1F9080016
:1052900005F065F88346304605F061F85946009000
:1052A00004F05FFE8246019904F093FE81461049A6
:1052B00004F005FE80464FF08F4104F058FE07468B
:1052C00005F06CF828600020BDE710B588B00446F2
:1052D0001CB94FF0FF3008B010BD206850B96068AD
:1052E00040B9A06830B90020F5E70000A00900200F
:1052F00000000C42FA494968087806AB03221146BF
:10530000FFF7F9F810B14FF0FF30E4E79DF818000F
:10531000082101EB201000F00F00ADF800009DF80F
:10532000190001EB201000F00F00ADF802009DF80D
:105330001A0001EB201000F00F00ADF80400206807
:105340004100BDF90000403091FBF0F000B2ADF833
:10535000100060684100BDF90200403091FBF0F0A0
:1053600000B2ADF81200A0684100BDF90400403061
:1053700091FBF0F000B2ADF81400D9494968087803
:1053800006AB06221146FFF7B6F810B14FF0FF301A
:10539000A1E79DF819009DF8181040EA012000B21D
:1053A000ADF808009DF81B009DF81A1040EA012096
:1053B00000B2ADF80A009DF81D009DF81C1040EAEF
:1053C000012000B2ADF80C00BDF81000BDF80810C7
:1053D000084400B2ADF81000BDF81200BDF80A1084
:1053E000084400B2ADF81200BDF81400BDF80C106E
:1053F000084400B2ADF81400BDF81000000A8DF8A2
:105400001800BDF81000C0B28DF81900BDF81200E8
:10541000000A8DF81A00BDF81200C0B28DF81B000A
:10542000BDF81400000A8DF81C00BDF81400C0B2CD
:105430008DF81D00AA494968087806AB0622114676
:10544000FFF70EF910B14FF0FF3044E7002042E7BC
:105450000146A348007A30B1012807D0022809D0BC
:1054600003280FD10AE0FA2008800EE04FF4FA700A
:1054700008800AE04FF47A70088006E04FF4FA6082
:10548000088002E00020088000BF00BF00207047B5
:1054900001469348407A30B1012807D0022808D04D
:1054A00003280CD108E0022008700BE004200870EB
:1054B00008E00820087005E01020087002E04FF0B6
:1054C000FF30704700BF8648C07C18B1087840069E
:1054D000000E08700020F4E701468148C07A0828D1
:1054E00017D2DFE800F01704070A0D101318BC20CC
:1054F000088013E06220088010E02A2008800DE078
:10550000142008800AE00A20088007E005200880AF
:1055100004E000BF00BF0020088000BF00BF0020E3
:10552000704701466E4890F8240010B14FF0FF30EC
:1055300070476B48C08908800020F9E701460020C9
:105540000880401E704701464FF0FF30704701460B
:105550006348007A30B1012807D0022808D0032818
:105560000CD108E05F4808600BE05F48086008E085
:105570005E48086005E05E48086002E04FF0FF30DA
:10558000704700BF0020FBE701465548407A30B124
:10559000012808D002280AD0032810D10BE04FF4CC
:1055A000804008800EE041F69C7008800AE04FF4CD
:1055B0008050088006E04FF40060088002E04FF061
:1055C000FF30704700BF4648C07C10B108884010CB
:1055D00008800020F5E701464148007C0870002063
:1055E000704701463E48807A10B10120087001E002
:1055F000002008700020704738B504463848807A8B
:1056000010B94FF0FF3038BD354A1268117C344A6A
:10561000526810786B460222FEF76DFF10B14FF012
:10562000FF30F0E79DF801009DF8001040EA0120EE
:1056300000B220800020E6E72DE9FE4F07468846AD
:1056400092461D46DDF830B000260024244890F82C
:10565000240010B1601EBDE8FE8F00202870204895
:10566000807A10B94FF0FF30F5E71D48007C10B983
:105670004FF0FF30EFE71A48007C00F0400008B11F
:10568000B01CC6B21648007C00F0200008B1B01C67
:10569000C6B21348007C00F0100008B1B01CC6B2BE
:1056A0000F48007C00F0080008B1B01DC6B20C4ADB
:1056B0001268917A0A4A526810786B460222FEF705
:1056C0001AFF10B14FF0FF30C5E79DF801009DF8BB
:1056D000001040EA0129B1450CDA0020BBE70000C8
:1056E000A00900200000034300008342333303423B
:1056F00033338341FC4840684088B9EB600F17DDC5
:10570000F94A1268517CF84A526810786B460122B7
:10571000FEF7F1FE10B14FF0FF309CE79DF800005E
:1057200000F0100020B1FFF7BBF96FF0010092E725
:105730005046FFF710FDEC4A1268D17AEA4A5268E7
:1057400010786B463246FEF7D6FE10B14FF0FF30B0
:1057500081E799FBF6F0401E8BF8000000202870CE
:10576000B4422AD0E048007C00F0080028B3601C56
:105770001DF800001DF8041040EA012000B2A8F84E
:105780000000E01C1DF80010A01C1DF8000041EAFC
:10579000002000B2A8F80200601D1DF80010201DB6
:1057A0001DF8000041EA002000B2A8F804002878A3
:1057B00040F008002870A01D84B2B44213D0CA483B
:1057C000007C00F0400070B1601C1DF800001DF866
:1057D000041040EA012000B23880287840F04000F0
:1057E0002870A01C84B2B44213D0BF48007C00F0E3
:1057F000200070B1601C1DF800001DF8041040EA84
:10580000012000B27880287840F020002870A01C89
:1058100084B2B44213D0B448007C00F0100070B1E0
:10582000601C1DF800001DF8041040EA012000B2C1
:10583000B880287840F010002870A01C84B20020A6
:1058400009E7F8B504460F461646A74890F8240025
:1058500010B94FF0FF30F8BDA348807A10B94FF06F
:10586000FF30F8E7A04A1268917A9F4A5268107890
:105870006B460222FEF73FFE10B14FF0FF30EAE721
:105880009DF801009DF8001040EA0125A54203DAC9
:1058900000203070401EDEE7934840684088B5EB3A
:1058A000600F17DD904A1268517C8F4A5268107859
:1058B0006B460122FEF71FFE10B14FF0FF30CAE722
:1058C0009DF8000000F0100020B1FFF7E9F86FF03C
:1058D0000100C0E7E2B2844B1B68D97A824B5B6857
:1058E00018783B46FEF707FE10B14FF0FF30B2E7E5
:1058F00095FBF4F0401E30700020ACE701467A487A
:1059000080F82210002070477CB50546764949682A
:10591000087801AB04220D21FEF7EDFD08B1072048
:105920007CBD9DF80700C0F301109DF8041001F044
:10593000E00140EAE1008DF800009DF80700C0F3A7
:1059400081009DF8051001F0E00140EAE1008DF8CA
:1059500001009DF8070000F003009DF8061001F01B
:10596000E00140EAE1008DF8020000241CE01DF88F
:10597000040018B9002045F8240013E05B4845F8FE
:10598000240006E055F82400594904F0F0FA45F8DF
:1059900024001DF80400401EC0B20DF804000028C9
:1059A000F0D100BF601CC4B2032CE0DB0020B7E7DD
:1059B0002DE9FE4F06460F4600256846FFF7A4FF77
:1059C000002442E056F8240057F82410A0EB010A06
:1059D000BAF1000F01DB514601E0CAF100010846AF
:1059E00004F0BDFC83464FF08F4104F0F2FA80468C
:1059F0005DF82400002104F04DFD16D05DF8241060
:105A0000404604F0E6FA82464FF07E5104F0A9FACF
:105A1000814629F0004A3748416A504604F044FD67
:105A200012D20120A04005430EE03248C169404631
:105A300004F030FD05D32F48016A404604F034FDE0
:105A400002D20120A0400543641C032CBADB284687
:105A5000BDE8FE8F2DE9FC5F06460F460025224972
:105A60004968087801AB03220D21FEF744FD10B10F
:105A70000720BDE8FC9F9DF8040000F01F008DF892
:105A800004009DF8050000F01F008DF805009DF84A
:105A9000060000F01F008DF80600002462E056F8B2
:105AA000240057F82410A0EB010BBBF1000F01DB21
:105AB000594601E0CBF10001084604F050FC4FF0DC
:105AC0008F41009004F085FA814601A8005DC0B3C3
:105AD0000849086804F04CFC83465946064804F01F
