:020000040800F2
:1000000038130020A18000080D0400080F04000828
:1000100013040008170400081B0400080000000077
:100020000000000000000000000000001F040008A5
:100030002104000800000000230400082504000833
:10004000BB800008BB800008BB800008BB800008A4
:10005000BB800008BB800008BB800008BB80000894
:10006000BB800008BB800008BB800008BB80000884
:10007000BB800008BB800008BB800008BB80000874
:10008000BB800008BB800008BB800008BB80000864
:10009000BB800008BB800008BB800008173D00083B
:1000A000BB800008BB800008BB800008BB80000844
:1000B0008340000899400008BB800008BB8000080E
:1000C000BB800008BB800008BB800008BB80000824
:1000D000BB8000086D760008A57C0008017A000846
:1000E000BB800008BB800008BB800008BB80000804
:1000F000BB800008BB800008BB800008BB800008F4
:10010000BB800008BB800008BB800008BB800008E3
:10011000BB800008BB800008F741000819250008D3
:10012000BB800008BB800008BB800008BB800008C3
:10013000DFF80CD00AF0B0F900480047450100088C
:100140003813002000BF4FF4A06008F03FFD01F01D
:1001500038FE04F011F904F05BF806F001FA01F042
:10016000EBFF02F0DBF803F0A7FF4FF4AF618B4821
:1001700009F0F6FC03F01BFF03F0D0FE00F044FA98
:1001800000F084FA02F0D8F885488649086186496B
:100190008448816201208549088007F05EFE07F0EF
:1001A00018FE07F0CBFE03F06AFEF5E08048007809
:1001B000012855D102237FA20021084600F0ABFBA5
:1001C00002237E48027800211E2001F024F97C4899
:1001D000027802230021502001F01DF9022379A2A8
:1001E0001946002000F097FB022378480278194650
:1001F000502001F010F976480278012304210020F4
:1002000001F009F97248427801230421182001F015
:1002100002F96F48827801230421302001F0FBF8B5
:100220006B48C27801230421482001F0F4F86848A3
:10023000027901230421602001F0EDF8022365A278
:100240000621002000F067FB4FF40061644808F0CD
:100250002CF80446022322460621502001F064FCBB
:10026000534800780028A0D140E002235D4802787E
:100270000021084601F0D1F902235BA200212820C9
:1002800000F049FB022346220021322001F0C3F88E
:10029000022356A20421002000F03DFB0223474820
:1002A00002780421502001F0B8F9022352A206215D
:1002B000002000F030FB42484278022306211E2035
:1002C00001F0A9F802234DA20621322000F023FB01
:1002D00002234B4802780621502001F09CF83C484C
:1002E000827802230021642001F095F84FF4006128
:1002F0003B4807F0DAFF0128B7D0304800780128E2
:100300002CD02E480078022828D000202C490870D4
:1003100034480078462803DB01203A49087002E09F
:1003200001203949087001F031FD4FF4FA7007F0EF
:1003300070F934480078012804D100203149087050
:1003400007F0A4FC30480078012804D100202E4991
:10035000087007F08FFC01201549087017480078D5
:1003600001280AD101F012FD4FF4FA7007F051F99B
:1003700007F064FC01200E4908701048007802283C
:100380000AD101F003FD4FF4FA7007F042F907F0CB
:1003900063FC01200649087008E7000000340140B2
:1003A000E8090020B8090020480A00203C0000208D
:1003B0002E0000206E756D3A000000002400002021
:1003C000B40A002078756E6A693A0000940800202B
:1003D000AE0A0020686F6E677761693A000000001E
:1003E00000080140C70A00203C0000006578705FEB
:1003F0006E756D3A00000000586E3A0058653A007C
:10040000320000203400002033000020704700BF7D
:10041000FEE700BFFEE700BFFEE700BFFEE7704754
:1004200070477047704700000CB5002001900090A5
:100430006C48006840F480306A49086000BF694831
:10044000006800F4003000900198401C0190009872
:1004500018B90198B0F5A06FF1D16248006800F4B6
:10046000003010B10120009001E0002000900098C1
:10047000012843D15C48006840F010005A490860E8
:100480000846006820F0030008600846006840F055
:100490000200086053484068524948600846406876
:1004A00048600846406840F48060486008464068FC
:1004B00020F47C1048600846406840F4E81048602A
:1004C0000846006840F08070086000BF454800683A
:1004D00000F000700028F9D04248406820F0030086
:1004E000404948600846406840F00200486000BF4C
:1004F0003C48406800F00C000828F9D10CBD10B54C
:10050000FFF792FF10BD10B53648006840F00100BB
:100510003449086008464068344908403149486019
:1005200008460068324908402E49086008460068BD
:1005300020F4802008600846406820F4FE004860EF
:100540004FF41F008860FFF7DAFF4FF00060294981
:10055000086010BD10B5002100200022214B5B680F
:1005600003F00C0121B1042906D0082928D107E0A5
:10057000214B224C236027E01F4B204C236023E0BB
:10058000184B5B6803F47010164B5B6803F4803201
:10059000022303EB904022B9194B4343174C2360CD
:1005A0000DE0104B5B6803F4003323B1144B43435D
:1005B000124C236003E0104B4343104C236003E0D4
:1005C0000D4B0E4C236000BF00BF064B5B68C3F3AE
:1005D00003130C4CE15C094B1B68CB40074C2360B8
:1005E00010BD000000100240002002400000FFF893
:1005F000FFFFF6FE08ED00E000127A004000002048
:1006000000093D004400002008B50121102008F039
:1006100075F84FF48060ADF8000010208DF80300ED
:1006200003208DF802006946174807F0ABFD4FF430
:100630000060ADF8000010208DF8030003208DF855
:1006400002006946104807F09DFD4FF48050ADF858
:10065000000010208DF8030003208DF80200694689
:10066000094807F08FFD4FF48061074807F037FE17
:100670004FF40061044807F032FE4FF48051024805
:1006800007F02DFE08BD00000010014008B5012153
:10069000042008F033F801212D4807F044FE4FF400
:1006A0000060ADF8000048208DF803006946294835
:1006B00007F068FD08BD10B5044614B101202649B5
:1006C00008702548007858B34FF40061214807F0BE
:1006D000ECFD48B10421214807F0E7FD20B10121DC
:1006E0001E4807F0E2FDD8B90A2006F092FF00206C
:1006F000194908704FF40061164807F0D6FD08B993
:10070000012010BD0421154807F0CFFD08B90220D3
:10071000F7E70121114807F0C8FDB0B90320F0E761
:100720004FF400610B4807F0C0FD01280DD10421F2
:100730000A4807F0BAFD012807D10121074807F050
:10074000B4FD012801D1044908700020D9E7000058
:100750000002300000080140540000200010014059
:1007600010B5044601F02EFC782001F0FEFB01F0EC
:10077000D1FB18B101F0AFFB012010BD402001F00A
:10078000F4FB01F0C7FB18B101F0A5FB0120F4E771
:10079000204601F0EAFB01F0BDFB18B101F09BFB24
:1007A0000120EAE701F097FB0020E6E710B50446D8
:1007B00001F008FC782001F0D8FB01F0ABFB18B188
:1007C00001F089FB012010BD002001F0CEFB01F0FB
:1007D000A1FB18B101F07FFB0120F4E7204601F0F6
:1007E000C4FB01F097FB18B101F075FB0120EAE7AB
:1007F00001F071FB0020E6E770B504460D4605F1F7
:10080000B001C8B2FFF7D2FF102141EA1410FFF780
:10081000CDFF04F00F0141F00100FFF7C7FF70BDED
:100820002DE9F84F0646884691469A46002700244F
:10083000002509F13000C0B28DF8000000208DF8CD
:100840000100BAF1010F03D0BAF1020F60D126E026
:1008500020E01DF805002038C7B27E2E04DD0026FA
:1008600008F1010000F0FF0841463046FFF7C4FFE1
:10087000002409E007EB4701FE4A02EB4101085D55
:10088000FFF76EFF601CC4B2062CF3DBB01DC6B2CE
:10089000681CC5B21DF805000028DAD138E032E046
:1008A0001DF805002038C7B2782E04DD002608F1B7
:1008B000010000F0FF0841463046FFF79DFF00248D
:1008C00007E004EB0711EC4A505CFFF749FF601C9E
:1008D000C4B2082CF5DB08F10100C1B23046FFF7C5
:1008E0008BFF002408E004EB07110831E24A505C5A
:1008F000FFF736FF601CC4B2082CF4DB06F10800D9
:10090000C6B2681CC5B21DF805000028C8D100BFDA
:1009100000BFBDE8F88F2DE9F04706468946174627
:100920009A464FF0000800240025BAF1010F03D0C9
:10093000BAF1020F5ED125E020E0785D203800F0AA
:10094000FF087E2E04DD002609F1010000F0FF09FA
:1009500049463046FFF750FF002409E008EB480104
:10096000C44A02EB4101085DFFF7FAFE601CC4B205
:10097000062CF3DBB01DC6B2681CC5B2785D00283A
:10098000DBD137E032E0785D203800F0FF08782EC8
:1009900004DD002609F1010000F0FF094946304658
:1009A000FFF72AFF002407E004EB0811B24A505C6D
:1009B000FFF7D6FE601CC4B2082CF5DB09F101007C
:1009C000C1B23046FFF718FF002408E004EB08111D
:1009D0000831A94A505CFFF7C3FE601CC4B2082C62
:1009E000F4DB06F10800C6B2681CC5B2785D0028C9
:1009F000C9D100BF00BFBDE8F0872DE9F04705462B
:100A000000249E49284609F092F9814609F0A6FB88
:100A100004460A2094FBF0F100FB1146642094FB8D
:100A2000F0F100FB11400A2190FBF1F74FF47A70CE
:100A300094FBF0F100FB1140642190FBF1F80223DC
:100A4000424619460020FFF7EBFE02233A461946BC
:100A50000820FFF7E5FE022389A219461020FFF7C0
:100A60005AFF0223324619461820FFF7D9FEBDE887
:100A7000F0872DE9F0470446884615461E460A20B1
:100A8000B5FBF0F100FB11596420B5FBF0F100FB60
:100A900011500A21B0FBF1FA4FF47A70B5FBF0F176
:100AA00000FB11506421B0FBF1F7012E24D137B1C6
:100AB00033463A4641462046FFF7B2FE05E033464C
:100AC00070A241462046FFF726FFA11DC8B233465B
:100AD00052464146FFF7A4FE04F10C01C8B233466A
:100AE00067A24146FFF717FF04F11201C8B233466F
:100AF0004A464146FFF794FE022E16D12FB13346E7
:100B00003A4641462046FFF78BFE04F10C01C8B27D
:100B100033465BA24146FFF7FEFE04F11201C8B264
:100B200033464A464146FFF77BFEBDE8F0872DE994
:100B3000F05F04468946164698460A20B6FBF0F157
:100B400000FB116A6420B6FBF0F100FB11600A2182
:100B5000B0FBF1FB4FF47A70B6FBF0F100FB1160D3
:100B60006421B0FBF1F742F21070B6FBF0F100FB2C
:100B700011604FF47A71B0FBF1F5B8F1010F43D178
:100B800065B143462A4649462046FFF749FEA11D66
:100B9000C8B243463A464946FFF742FE6FB165B9CF
:100BA000434638A249462046FFF7B5FEA11DC8B20C
:100BB00043463A464946FFF733FE6FB965B94346A7
:100BC00030A249462046FFF7A6FEA11DC8B2434603
:100BD0002CA24946FFF79FFE04F10C01C8B2434620
:100BE0005A464946FFF71CFE04F11201C8B24346BB
:100BF00023A24946FFF78FFE04F11801C8B243460D
:100C000052464946FFF70CFEB8F1020F4FD165B1CD
:100C100043462A4649462046FFF702FEA11DC8B2B8
:100C200043463A464946FFF7FBFD6FB165B9434677
:100C300014A249462046FFF76EFEA11DC8B24346E6
:100C40003A464946FFF7ECFD6FB965B943460DA238
:100C500049462046FFF75FFEA11DC8B2434609A2E0
:100C60004946FFF758FE04F11001C8B243465A4600
:100C7000494609E034AD00085CAF0008000020419F
:100C80002E00000020000000FFF7CAFD04F118014B
:100C9000C8B24346AFF218024946FFF73CFE04F1E2
:100CA0002001C8B2434652464946FFF7B9FDBDE8A8
:100CB000F09F2DE9FF4F81B08B46F749019809F06D
:100CC00036F8009009F04AFA0446F349584609F00C
:100CD0002EF8009009F042FA0546EF49039809F012
:100CE00026F8009009F03AFA0646EB49049809F014
:100CF0001EF8009009F032FA0746E7490E9809F00D
:100D000016F8009009F02AFA8046E3490F9809F096
:100D10000EF8009009F022FA8146DF49109809F098
:100D200006F8009009F01AFA82460123DBA200219E
:100D30001820FFF7F0FD0123DAA219460020FFF783
:100D4000EAFD0123D9A202210020FFF7E4FD0123DF
:100D5000D8A203210020FFF7DEFD0123D7A2042142
:100D60000020FFF7D8FD0123D6A205210020FFF7C0
:100D7000D2FD0123D5A206210020FFF7CCFD0123DF
:100D8000D4A207210020FFF7C6FD002C07DA0123BB
:100D9000D2A219462A20FFF7BEFD644206E00123D5
:100DA000AFF2201219462A20FFF7B5FD0123224693
:100DB00019463020FFF75DFE002D07DA0123C7A298
:100DC00002212A20FFF7A7FD6D4206E00123AFF2C2
:100DD0004C1202212A20FFF79EFD01232A46022100
:100DE0003020FFF746FE002E07DA0123BBA20321C5
:100DF0002A20FFF790FD764206E00123AFF27C1235
:100E000003212A20FFF787FD0123324603213020EA
:100E1000FFF72FFE002F07DA0123B0A207212A20B7
:100E2000FFF779FD7F4206E00123AFF2A812072108
:100E30002A20FFF770FD01233A4607213020FFF7F3
:100E400076FEB8F1000F08DA0123A4A205212A20BA
:100E5000FFF761FDC8F1000806E00123AFF2DC12E4
:100E600005212A20FFF757FD0123424605213020A6
:100E7000FFF7FFFDB9F1000F08DA012397A2062161
:100E80002A20FFF748FDC9F1000906E00123AFF26F
:100E90000C2206212A20FFF73EFD01234A460621A7
:100EA0003020FFF7E6FDBAF1000F08DA01238BA22C
:100EB00004212A20FFF72FFDCAF1000A06E00123D2
:100EC000AFF2402204212A20FFF725FD01235246DC
:100ED00004213020FFF7CDFD05B0BDE8F08F2DE9EE
:100EE000FF4F81B08B466C49019808F020FF0090BD
:100EF00009F034F904466849584608F018FF009094
:100F000009F02CF905466449039808F010FF009099
:100F100009F024F906466049049808F008FF00909B
:100F200009F01CF907465C490E9808F000FF009094
:100F300009F014F9804658490F9808F0F8FE00901F
:100F400009F00CF981465449109808F0F0FE009021
:100F500009F004F98246012361A200215420FFF721
:100F6000DAFC002C07DA01235CA219465A20FFF7AD
:100F7000D2FC644206E00123AFF2F82219465A205F
:100F8000FFF7C9FC0123224619466020FFF771FDD7
:100F9000002D07DA012351A202215A20FFF7BBFCE2
:100FA0006D4206E00123AFF2243202215A20FFF7FE
:100FB000B2FC01232A4602216020FFF75AFD002ED1
:100FC00007DA012345A203215A20FFF7A4FC764249
:100FD00006E00123AFF2543203215A20FFF79BFCB5
:100FE0000123324603216020FFF743FD002F07DA7B
:100FF00001233AA207215A20FFF78DFC7F4206E029
:101000000123AFF2803207215A20FFF784FC01232D
:101010003A4607216020FFF78AFDB8F1000F08DA91
:1010200001232EA205215A20FFF775FCC8F1000804
:1010300006E00123AFF2B43205215A20FFF76BFC22
:101040000123424605216020FFF713FDB9F1000F8F
:1010500008DA012321A206215A20FFF75CFCC9F11E
:10106000000906E00123AFF2E43206215A20FFF71F
:1010700052FC01234A4606216020FFF7FAFCBAF130
:10108000000F31DA012315A204215A20FFF743FC97
:10109000CAF1000A2FE00000000020415265616C97
:1010A0000000000050697463683A0000526F6C6C75
:1010B0003A0000005961773A00000000526164690B
:1010C00075733A004C656E6774683A0054696D65D3
:1010D0003A00000053706565643A00002D0000007E
:1010E00045787065637400000123AFF26842042103
:1010F0005A20FFF710FC0123524604216020FFF71D
:10110000B8FC05B0BDE8F08F2DE9F05F04460F464E
:1011100015461E460A20B5FBF0F100FB115864206D
:10112000B5FBF0F100FB11500A21B0FBF1F94FF4CF
:101130007A70B5FBF0F100FB11506421B0FBF1FABD
:1011400042F21070B5FBF0F100FB11504FF47A71D0
:10115000B0FBF1FB012E1CD133465A4639462046DE
:10116000FFF75EFBA11DC8B2334652463946FFF772
:1011700057FB04F10C01C8B233464A463946FFF723
:101180004FFB04F11201C8B2334642463946FFF71D
:1011900047FB022E1DD133465A4639462046FFF7FB
:1011A0003FFB04F10801C8B2334652463946FFF707
:1011B00037FB04F11001C8B233464A463946FFF7FF
:1011C0002FFB04F11801C8B2334642463946FFF7F7
:1011D00027FBBDE8F09F70B505460C46002D08DAE8
:1011E0000223AFF2081204213220FFF794FB6D4274
:1011F00006E00223AFF2745204213220FFF78BFB8A
:1012000002232A4604213A20FFF77EFF002C08DA49
:101210000223AFF2381206213220FFF77CFB644232
:1012200006E00223AFF2A45206213220FFF773FB3F
:101230000223224606213A20FFF766FF70BD10B553
:101240000446002C08DA0223AFF270120421322087
:10125000FFF761FB644206E00223AFF2D85204219B
:101260003220FFF758FB0223224604213A20FFF7E1
:101270004BFF10BD70B50546FE49284608F057FDE6
:10128000064608F06BFF0446002C08DA0223AFF292
:10129000B41219460020FFF73EFB644206E0022329
:1012A000AFF2206219460020FFF735FB02232246E9
:1012B00019460820FFF7DDFB70BD2DE9F041074618
:1012C0000E46EC49384608F032FD804608F046FFED
:1012D0000446E849304608F02AFD804608F03EFF03
:1012E0000546002C08DA0223AFF21022194600202E
:1012F000FFF711FB644206E00223AFF27862194661
:101300000020FFF708FB0223224619460820FFF7BA
:10131000B0FB002D08DA0223AFF2402204210020A6
:10132000FFF7F9FA6D4206E00223AFF2A86204214A
:101330000020FFF7F0FA02232A4604210820FFF7D5
:10134000F6FBBDE8F0812DE9F04704460F4615464F
:101350001E460A20B5FBF0F100FB11586420B5FBD6
:10136000F0F100FB11500A21B0FBF1F94FF47A7053
:10137000B5FBF0F100FB11506421B0FBF1FA012E36
:1013800014D13346524639462046FFF749FAA11D8B
:10139000C8B233464A463946FFF742FA04F10C0117
:1013A000C8B2334642463946FFF73AFA022E15D103
:1013B0003346524639462046FFF732FA04F1080117
:1013C000C8B233464A463946FFF72AFA04F11001FB
:1013D000C8B2334642463946FFF722FABDE8F087E5
:1013E00010B50446002C08DA0223AFF210320421B3
:1013F0003220FFF790FA644206E00223AFF27C72DB
:1014000004213220FFF787FA0223224604213A20E2
:10141000FFF799FF10BD2DE9F04704460F4615462A
:101420001E460A20B5FBF0F100FB11586420B5FB05
:10143000F0F100FB11500A21B0FBF1F9012E0CD1A3
:1014400033464A4639462046FFF7EAF9A11DC8B29D
:10145000334642463946FFF7E3F9022E0DD13346B3
:101460004A4639462046FFF7DBF904F10801C8B2C5
:10147000334642463946FFF7D3F9BDE8F08710B549
:101480000446002C08DA0223AFF2B03204213220E5
:10149000FFF741FA644206E00223AFF61802042186
:1014A0003220FFF738FA0223224604213A20FFF7C0
:1014B000B2FF10BD2DE9F84F04460F4615461E46F3
:1014C0000A20B5FBF0F100FB11586420B5FBF0F1E8
:1014D00000FB11500A21B0FBF1F94FF47A70B5FB13
:1014E000F0F100FB11506421B0FBF1FA42F21070F0
:1014F000B5FBF0F100FB11504FF47A71B0FBF1FB3A
:101500005D48B5FBF0F100FB115042F21071B0FBE9
:10151000F1F00090012E2DD1334639462046009A35
:10152000FFF77EF9A11DC8B233465A463946FFF788
:1015300077F904F10C01C8B2334652463946FFF739
:101540006FF904F11201C8B233464A463946FFF733
:1015500067F904F11801C8B23346AFF6DC02394628
:10156000FFF7D9F904F11E01C8B2334642463946A5
:10157000FFF756F9022E2ED1334639462046009AFF
:10158000FFF74EF904F10801C8B233465A4639460E
:10159000FFF746F904F11001C8B233465246394606
:1015A000FFF73EF904F11801C8B233464A463946FE
:1015B000FFF736F904F12001C8B23346AFF6401206
:1015C0003946FFF7A8F904F12801C8B2334642466C
:1015D0003946FFF725F9BDE8F88F014600291ADBE7
:1015E0002548814217DA0A2901DA01207047642967
:1015F00001DA0220FAE7B1F57A7F01DA0320F5E794
:1016000042F21070814201DA0420EFE71B48814268
:1016100001DA0520EAE70020E8E72DE9F84F044663
:101620000F4615461E460A20B5FBF0F100FB115887
:101630006420B5FBF0F100FB11500A21B0FBF1F979
:101640004FF47A70B5FBF0F100FB11506421B0FB50
:10165000F1FA42F21070B5FBF0F100FB11504FF4BB
:101660007A71B0FBF1FB42F21070B5FBF0F0009024
:10167000012E05E000002041A086010040420F003D
:1016800072D12846FFF7A9FF062811D2DFE800F043
:1016900093031127456D3346424639462046FFF7EE
:1016A000BFF8A11DC8B23346FAA23946FFF733F995
:1016B00081E033464A4639462046FFF7B1F8A11D7E
:1016C000C8B2334642463946FFF7AAF804F10C0186
:1016D000C8B23346F1A23946FFF71DF96BE0334635
:1016E000524639462046FFF79BF8A11DC8B2334643
:1016F0004A463946FFF794F804F10C01C8B2334664
:1017000042463946FFF78CF804F11201C8B233465D
:10171000E3A23946FFF7FFF84DE033465A46394613
:101720002046FFF77DF8A11DC8B233465246394620
:10173000FFF776F804F10C01C8B233464A46394641
:10174000FFF76EF804F11201C8B23346424639463B
:10175000FFF766F804F11801C8B23346AFF6DC2291
:101760003946FFF7D8F826E026E0334639462046CA
:10177000009AFFF755F8A11DC8B233465A463946BC
:10178000FFF74EF804F10C01C8B233465246394611
:10179000FFF746F804F11201C8B233464A4639460B
:1017A000FFF73EF804F11801C8B233464246394605
:1017B000FFF736F800BF00BF022E76D12846FFF7AC
:1017C0000CFF062812D2DFE800F0980312294871B6
:1017D0003346424639462046FFF722F804F1080115
:1017E000C8B23346ABA23946FFF795F885E03346D9
:1017F0004A4639462046FFF713F804F10801C8B2FB
:10180000334642463946FFF70BF804F11001C8B2DF
:101810003346A2A23946FFF77EF86EE033465246C1
:1018200039462046FEF7FCFF04F10801C8B23346F2
:101830004A463946FEF7F4FF04F11001C8B23346B8
:1018400042463946FEF7ECFF04F11801C8B23346B0
:1018500093A23946FFF75FF84FE033465A463946C0
:101860002046FEF7DDFF04F10801C8B233465246B8
:101870003946FEF7D5FF04F11001C8B233464A4697
:101880003946FEF7CDFF04F11801C8B2334642468F
:101890003946FEF7C5FF04F12001C8B23346AFF662
:1018A0001C423946FFF737F827E027E03346394630
:1018B0002046009AFEF7B4FF04F10801C8B233468F
:1018C0005A463946FEF7ACFF04F11001C8B2334660
:1018D00052463946FEF7A4FF04F11801C8B2334658
:1018E0004A463946FEF79CFF04F12001C8B2334650
:1018F00042463946FEF794FF00BF00BFBDE8F88FAF
:101900002DE9F05F04460F4615461E460A20B5FB3A
:10191000F0F100FB11586420B5FBF0F100FB115011
:101920000A21B0FBF1F94FF47A70B5FBF0F100FB3E
:1019300011506421B0FBF1FA42F21070B5FBF0F1E6
:1019400000FB11504FF47A71B0FBF1FB012E6DD109
:101950002846FFF742FE012806D0022812D00328AD
:1019600026D0042861D142E033464246394620461B
:10197000FEF756FFA11DC8B2334648A23946FEF70E
:10198000CAFF52E033464A4639462046FEF748FF32
:10199000A11DC8B2334642463946FEF741FF04F165
:1019A0000C01C8B233463EA23946FEF7B4FF3CE014
:1019B0003346524639462046FEF732FFA11DC8B2D3
:1019C00033464A463946FEF72BFF04F10C01C8B2F4
:1019D000334642463946FEF723FF04F11201C8B2EE
:1019E0003346AFF660523946FEF795FF1DE03346A9
:1019F0005A4639462046FEF713FFA11DC8B23346AA
:101A000052463946FEF70CFF04F10C01C8B23346CA
:101A10004A463946FEF704FF04F11201C8B23346C4
:101A200042463946FEF7FCFE00BF00BF022E79D1C8
:101A30002846FFF7D2FD012806D0022813D003283C
:101A400030D004286DD14DE0334642463946204619
:101A5000FEF7E6FE04F10801C8B233460FA239468C
:101A6000FEF759FF5DE033464A4639462046FEF709
:101A7000D7FE04F10801C8B2334642463946FEF7A4
:101A8000CFFE04F11001C8B2334605A23946FEF775
:101A900042FF46E0202020200000000020202000FF
:101AA000202000003346524639462046FEF7B8FE55
:101AB00004F10801C8B233464A463946FEF7B0FE83
:101AC00004F11001C8B2334642463946FEF7A8FE7B
:101AD00004F11801C8B23346AFF658623946FEF732
:101AE0001AFF1EE033465A4639462046FEF798FE56
:101AF00004F10801C8B2334652463946FEF790FE5B
:101B000004F11001C8B233464A463946FEF788FE52
:101B100004F11801C8B2334642463946FEF780FE4A
:101B200000BF00BFBDE8F09F2DE9F04704460F4617
:101B300015461E460A20B5FBF0F100FB1158642043
:101B4000B5FBF0F100FB11500A21B0FBF1F94FF4A5
:101B50007A70B5FBF0F100FB11506421B0FBF1FA93
:101B6000012E46D12846FFF738FD012804D002286F
:101B700011D003283CD125E0334642463946204661
:101B8000FEF74EFEA11DC8B23346AFF2EC02394655
:101B9000FEF7C1FE2CE033464A4639462046FEF7A2
:101BA0003FFEA11DC8B2334642463946FEF738FE15
:101BB00004F10C01C8B23346AFF638723946FEF76D
:101BC000AAFE15E03346524639462046FEF728FE67
:101BD000A11DC8B233464A463946FEF721FE04F13C
:101BE0000C01C8B2334642463946FEF719FE00BF23
:101BF00000BF022E49D12846FFF7EFFC012804D090
:101C0000022812D003283FD127E033464246394606
:101C10002046FEF705FE04F10801C8B23346AFF2D4
:101C200080123946FEF777FE2EE033464A463946A3
:101C30002046FEF7F5FD04F10801C8B233464246DE
:101C40003946FEF7EDFD04F11001C8B23346AFF698
:101C5000CC723946FEF75FFE16E0334652463946EF
:101C60002046FEF7DDFD04F10801C8B233464A46BE
:101C70003946FEF7D5FD04F11001C8B2334642469D
:101C80003946FEF7CDFD00BF00BFBDE8F0872DE966
:101C9000F04180460E46174600247D0131464046FD
:101CA000FEF7AAFD00BF06E07A49485DFEF758FD41
:101CB0006D1C601CC4B2102CF6DB701CC1B2404617
:101CC000FEF79AFD002406E07249485DFEF748FDE4
:101CD0006D1C601CC4B2102CF6DBBDE8F0812DE950
:101CE000F05F06460F4690461C46DDF828A04FF0F0
:101CF000000BE11704EB5171C910A4EBC10131B91C
:101D00002046E11704EB5171C1F3C70506E02046F8
:101D1000E11704EB5171C910491CCDB23D4614E0E6
:101D200029463046FEF768FDB1460AE059460BF1F8
:101D3000010B1AF80100FEF713FD09F1010000F094
:101D4000FF09C145F2DB681CC5B2A542E8DBBDE86E
:101D5000F09F70B50646002415E004F1B001C8B24A
:101D6000FEF724FD0020FEF721FD1020FEF71EFDEA
:101D7000002504E03046FEF7F3FC681CC5B2802D58
:101D8000F8DB601CC4B2082CE7DB70BD10B5002086
:101D9000FFF7DFFF10BD10B58D20FEF707FD142003
:101DA000FEF704FDAF20FEF701FD10BD10B58D203C
:101DB000FEF7FCFC1020FEF7F9FCAE20FEF7F6FC67
:101DC00010BD10B505F0E8FB00F066F8642005F0E2
:101DD00020FCAE20FEF7EAFC2020FEF7E7FC1020F6
:101DE000FEF7E4FCB020FEF7E1FCC020FEF7DEFCCD
:101DF000A020FEF7DBFC0020FEF7D8FC1020FEF749
:101E0000D5FC4020FEF7D2FC8120FEF7CFFCFF205E
:101E1000FEF7CCFCA620FEF7C9FCA820FEF7C6FC06
:101E20003F20FEF7C3FCA420FEF7C0FCD320FEF742
:101E3000BDFC0020FEF7BAFCD520FEF7B7FCF02071
:101E4000FEF7B4FCD920FEF7B1FC2220FEF7AEFC71
:101E5000DA20FEF7ABFC1220FEF7A8FCDB20FEF731
:101E6000A5FC2020FEF7A2FC8D20FEF79FFC14208D
:101E7000FEF79CFCAF20FEF799FC0021C82000F083
:101E8000C3F80021A12000F0BFF80020FFF761FF98
:101E900010BD00005500002008B50121102006F0FB
:101EA0002DFC0121084606F029FC01219E4806F080
:101EB0003AFA3020ADF8000010208DF8030003201E
:101EC0008DF802006946994806F05CF93021974880
:101ED00006F005FA08BD10B59448006820F470209B
:101EE000924908600846006840F4403008600020CD
:101EF0008F4908608F49C1F89001042005F065FB07
:101F000001208B4908608B49C1F89001042005F03D
:101F10005CFB10BD10B500248448006820F47020DC
:101F2000824908600846006840F4002008600120EB
:101F30007F49091F086005F048FB01207D49C1F871
:101F4000940105F042FB07E0601CC4B2FA2C03DDEB
:101F5000FFF7C1FF012010BD7548843800680028D4
:101F6000F2D17349086000BFF5E770B504466F48C9
:101F7000006820F470206D4908600846006840F44D
:101F80004030086000206A490860002517E0E00939
:101F90006749091F08606006040E022005F015FB62
:101FA00001206449C1F89401022005F00EFB0020D5
:101FB0005F490860022005F008FB681CC5B2082DC7
:101FC000E5DB70BD10B55948006820F47020574912
:101FD00008600846006840F4403008600120544919
:101FE000091F08605349C1F89401042005F0EDFA77
:101FF00000204F49091F0860042005F0E6FA002080
:102000004C49C1F8940110BD70B505460C46FFF768
:10201000D9FF7820FFF7A9FFFFF77CFF1CB1402014
:10202000FFF7A3FF02E00020FFF79FFFFFF772FF1B
:102030002846FFF79AFFFFF76DFFFFF76BFF70BDB4
:1020400010B500203A4908603848006820F4702034
:10205000364908600846006840F4403008600020B7
:102060003449C1F89001022005F0AFFA012030494F
:102070000860022005F0A9FA00202E49C1F8940159
:1020800010BD10B500202A4908602848006820F4D7
:102090007020264908600846006840F44030086017
:1020A00001202449C1F89001022005F08EFA012098
:1020B0001F490860022005F088FA00201D49C1F878
:1020C000940110BD70B5054600241848006820F43E
:1020D0007020164908600846006840F40020086037
:1020E000002616E0002012490860022005F06DFA73
:1020F00001201049C1F894016006040E0C48843890
:10210000006808B1601CC4B2012005F05EFA701CC2
:10211000C6B2082EE6DB15B9FFF7B3FF01E0FFF703
:102120008FFF204670BD000000023000001001400B
:10213000940122420000224208B50121082006F045
:10214000DDFA0121042006F0D9FA10208DF80300F1
:102150004FF47040ADF8000003208DF8020069468E
:10216000384806F00FF808BD0268B2F5E15F02DDFD
:102170004FF4E1520260026812F5E15F01DA324A7F
:1021800002600A68B2F5E15F02DD4FF4E1520A60D5
:102190000A6812F5E15F01DA2B4A0A6070470146CE
:1021A000002901DD0A4600E04A421046704770B53A
:1021B00005460C46B5F5E15F01DD4FF4E155B4F598
:1021C000E15F01DD4FF4E15415F5E15F00DA1E4DEA
:1021D00014F5E15F00DA1C4C002D07DB00201B49E1
:1021E000086001201A49C1F8B40106E0012017492E
:1021F000086000201649C1F8B4012846FFF7CFFF58
:1022000086B23146134807F0A5FC002C08DB0020FD
:102210000E490831086001200D49C1F8BC0107E0F2
:1022200001200A490831086000200949C1F8BC01B1
:102230002046FFF7B4FF86B23146064807F08CFC13
:1022400070BD0000000C0140E0E3FFFFB0812142BF
:10225000008021420008004008B50121082006F056
:102260004DFA4020ADF8000018208DF8030003203F
:102270008DF8020069462C4805F084FF01210820F2
:1022800006F03CFA8020ADF8000018208DF803001D
:1022900003208DF802006946234805F073FF08BD4E
:1022A00000B587B00121042006F035FA41F61F4041
:1022B000ADF804000020ADF80000ADF80600ADF860
:1022C00002008DF808006946184806F04FFE6020AD
:1022D000ADF80C000120ADF80E000020ADF81400A0
:1022E00013480088ADF8120003A9104806F07BFEE1
:1022F00008210E4807F0C6FA0E480088ADF8120013
:1023000003A90A4806F0B1FE0821084807F0C3FAFD
:102310000121064807F086F907B000BD10B5FFF7A8
:102320009BFFFFF7BDFF10BD000C014000080040FF
:10233000560800205808002008B50121202006F08A
:10234000DDF90420ADF8000010208DF80300032013
:102350008DF8020069460D4805F014FF04210B4872
:1023600005F0BFFF08BD10B50421084805F0B7FF10
:102370004FF4FA7005F04DF90421044805F0B1FF5F
:102380004FF4FA7005F045F910BD0000001401404B
:1023900010B50021684807F0D9FB00206749088084
:1023A0000121654807F03EF910BD10B500216248D3
:1023B00007F038F910BD10B500BF604800884FF431
:1023C0007A7100FB01F45C4807F0E3FB0444002051
:1023D000594924310880012005F01BF9204610BD21
:1023E00000B585B005F0D8F80121042006F086F983
:1023F0000121202006F08FF910208DF81300000134
:10240000ADF8100003208DF8120004A94C4805F027
:10241000B9FE4FF480714A4805F063FF04208DF83F
:1024200013004002ADF8100004A9454805F0AAFECB
:102430004FF40061424805F054FF3F4806F0C2FCEB
:1024400040F2E730ADF808004720ADF80400002066
:10245000ADF80A00ADF8060001A9374806F086FD80
:1024600001221146344807F0F8F837208DF80000B3
:1024700001208DF8030000208DF801008DF8020086
:10248000684606F0A8FB00212B4807F0CBF805B002
:1024900000BD2DE9F84F4FF0000A0024A146A346E5
:1024A00030E001202749086005F0B3F800202649F4
:1024B000C1F8A00100BF2348743800680028FAD092
:1024C000FFF766FF641C00BF1E48743800680128CF
:1024D000FAD0FFF76AFFFFF76EFF8246504607F01B
:1024E00027FE009007F086FE07460022174B07F0F4
:1024F000A7FD054607F091FE81464946584607F07C
:10250000BEFB8346052CCCD11149584607F041FC4F
:1025100081464846BDE8F88F10B50121064807F00E
:102520004AFB40B10121044807F056FB03480088EC
:10253000401C0249088010BD001400405E080020C5
:1025400000080140A00121420000214200004D404E
:102550000000A04010B5022005F037F810BD08B506
:102560000121082006F0CAF81820ADF8000010205C
:102570008DF8030003208DF802006946834805F0BA
:1025800001FE08BD10B58148006820F470407F4905
:1025900008600846006840F44050086001207C490B
:1025A00008607C49C1F89001FFF7D4FF002078490A
:1025B0000860FFF7CFFF00207649C1F8900110BDF9
:1025C00010B57248006820F47040704908600846F1
:1025D000006840F44050086000206D49091D086003
:1025E0006C49C1F88C01FFF7B5FF01206849091D4E
:1025F00008606849C1F88C01FFF7ACFF10BD10B549
:1026000000246248006820F4704060490860084671
:10261000006840F40040086001205D490860FFF751
:1026200099FF01205B49C1F89001FFF793FF07E094
:10263000601CC4B2FA2C03DDFFF7C2FF012010BDFD
:102640005348803800680028F2D15149091D0860BC
:1026500000BFF4E710B500204D49091D08604B4844
:10266000006820F47040494908600846006840F45A
:102670004050086000204749C1F88C01FFF76AFF0D
:1026800001204349091D0860FFF764FF002041490C
:10269000C1F8900110BD10B500203D49091D08602A
:1026A0003A48006820F470403849086008460068DD
:1026B00040F44050086001203649C1F88C01FFF712
:1026C00049FF01203249091D0860FFF743FF002040
:1026D0003049C1F8900110BD70B504462B48006820
:1026E00020F47040294908600846006840F44050D2
:1026F000086000202649091D0860002512E0E00955
:10270000234908606006040E01202249C1F89001A7
:10271000FFF720FF00201E49091D0860FFF71AFF80
:10272000681CC5B2082DEADB70BD70B505460024F3
:102730001648006820F47040144908600846006894
:1027400040F400400860002615E000201049091DF3
:102750000860FFF7FFFE01200E49C1F890016006F6
:10276000040E0B488038006808B1601CC4B2FFF743
:10277000F1FE701CC6B2082EE7DB15B9FFF78BFF20
:1027800001E0FFF767FF204670BD0000000C01402C
:102790008C812142008021422DE9FC5FFE480078B7
:1027A00001287DD1FD48807801280BD1FB48407875
:1027B00040B9FA48C07828B9F94801680068FFF7BD
:1027C000F6FCE8E0F5484078012837D1F348007876
:1027D000002833D1F248006807F0AFFC8246F14A86
:1027E000F14B07F0BBFB06460F46ED48006807F0CB
:1027F000A4FC804632463B4607F009FB044607F03E
:10280000DAFC0190E648006807F097FC8246E54A4A
:10281000E54B07F0A3FB06460F46E148006807F0CA
:102820008CFC804632463B4607F092FB044607F09C
:10283000C2FC00900199FFF7BAFCACE0D7480078E1
:10284000012835D1D648006807F077FC8246D54A82
:10285000D64B07F083FB04460D46D148006807F0CD
:102860006CFC064622462B4607F0D1FA804607F05C
:10287000A2FC0190CA48006807F05FFC8046C94A84
:10288000CA4B07F06BFB06460F46C548006807F0C9
:1028900054FC824632463B4607F05AFB044600E0B1
:1028A0000DE307F088FC00900199FFF780FC72E0CF
:1028B000BA48C078012837D1B848007998BBB848E1
:1028C000006807F03AFC8246B64AB74B07F046FB71
:1028D00080468946B248006807F02FFC064642460B
:1028E0004B4607F035FB044607F065FC0190AC4809
:1028F000006807F022FC8246AA4AAB4B07F02EFB89
:1029000006460F46A648006807F017FC8046324688
:102910003B4607F07CFA044607F04DFC0090019915
:10292000FFF745FC37E0FFE79C480079012832D1EA
:102930009B48006807F001FC80469A4A9B4B07F0D1
:102940000DFB04460D469648006807F0F6FB064668
:1029500022462B4607F0FCFA824607F02CFC019039
:102960008F48006807F0E9FB80468E4A8F4B07F0DE
:10297000F5FA04460D468A48006807F0DEFB064675
:1029800022462B4607F043FA824607F014FC0090DB
:102990000199FFF70CFC8648006840F6C411884294
:1029A00002DA002083490870824800788249097859
:1029B00088420FD17E48006840F6B831884209DD70
:1029C0007E48007830B97C4800787D490870012045
:1029D0007A4908707B480078C0B97B4801687B4819
:1029E000006807F04CF907464FF0804107F0D1F935
:1029F00005467748006807F092FB0646294607F02F
:102A00003EF9044607F0AAFB714908607048006867
:102A100070490968884234DB00206649087001204B
:102A2000684908706C48007858BB002061490870FC
:102A30006A48007801280FD100210846FFF7B7FB4C
:102A4000C82004F0E6FD66494842FFF7B0FB4FF4AA
:102A5000967004F0DEFD0FE000210846FFF7A7FBAB
:102A6000C82004F0D6FD4FF4FA614842FFF79FFBFF
:102A70004FF4967004F0CDFD01205A490870564974
:102A8000087058480078012818D14F4801684F480D
:102A9000006807F0F4F807464FF0804107F079F935
:102AA00005464348006807F03AFB0646294607F00A
:102AB000E6F8044607F052FB3D4908603C480068D0
:102AC00049490968884236DB002046490870474872
:102AD000007880BB3A48007837490978884212D19B
:102AE00000210846FFF763FBC82004F092FD3C4933
:102AF0004842FFF75CFB4FF4FA7004F08AFD0120B6
:102B00003B49087012E000210846FFF750FBC8203F
:102B100004F07FFD4FF4FA614842FFF748FB4FF4A1
:102B2000FA7004F076FD0020314908700120314927
:102B300008702E4908702F480078012818D12248C3
:102B400001682248006807F09AF807464FF0804174
:102B500007F01FF905462848006807F0E0FA064626
:102B6000294607F08CF8044607F0F8FA2249086075
:102B7000214800682149096888427DDB20480078A7
:102B8000002879D11B49087000210846FFF70FFB88
:102B900000201C49086037E089080020AE0A0020A8
:102BA000740800209A9999999999B93F9999C93FC0
:102BB000D4080020B40A0020240000209E08002031
:102BC0009C080020CA0800201400002010000020EB
:102BD000CC080020580900209D080020D60A0020BB
:102BE00030F8FFFFD008002060090020D108002045
:102BF000E3080020D8080020DC0800206809002035
:102C0000D9080020A801224200BF4FF40061FE480D
:102C100005F04BFB0028F8D0C82004F0FAFC012096
:102C2000FA490860FA4948700020FA4908600BE048
:102C3000F7490A2005F079F8642004F0EAFCF54829
:102C40000068401CF3490860F24800680A28EFDB7E
:102C50004FF4FA614842FFF7AAFA4FF47A7004F091
:102C6000D8FCC82004F0D5FC00210846FFF79FFAE5
:102C7000E9480078012800E04EE043D14FF47A7033
:102C800004F0C7FC4FF47A7004F0C3FC4FF47A7080
:102C900004F0BFFC4FF47A7004F0BBFC4FF47A7080
:102CA00004F0B7FC4FF47A7004F0B3FC4FF47A7080
:102CB00004F0AFFC4FF47A7004F0ABFC4FF47A7080
:102CC00004F0A7FC4FF47A7004F0A3FC4FF47A7080
:102CD00004F09FFC4FF47A7004F09BFC4FF47A7080
:102CE00004F097FC4FF47A7004F093FC4FF47A7080
:102CF00004F08FFC4FF47A7004F08BFC4FF47A7080
:102D000004F087FC40F2DC514842FFF750FA012002
:102D1000C2490870C2490870C1480078012818D11A
:102D2000C0480168C048006806F0A9FF07464FF098
:102D3000804107F02EF80546BC48006807F0EFF91F
:102D40000646294606F09BFF044607F007FAB749F6
:102D50000860B6480068B649096888422DDB002043
:102D6000AF490870B348007838BBB348007878B9E9
:102D700000210846FFF71BFA642004F04AFCAF4923
:102D80004842FFF714FA4FF4FA7004F042FC0FE0E7
:102D900000210846FFF70BFA642004F03AFC4FF4D8
:102DA000FA614842FFF703FA4FF4487004F031FC2F
:102DB0000120A0490870A2490870A14800780128A4
:102DC00018D1984801689848006806F058FF0746EF
:102DD0004FF0804106F0DDFF05469A48006807F095
:102DE0009EF90646294606F04AFF044607F0B6F962
:102DF00094490860934800689349096888422EDB2B
:102E000000208F4908709148007840BB90480078B6
:102E1000012810D100210846FFF7C9F9C82004F0A5
:102E2000F8FB4FF4FA614842FFF7C1F94FF4FA702A
:102E300004F0EFFB0EE000210846FFF7B8F9C820C8
:102E400004F0E7FB7D494842FFF7B1F94FF4FA700F
:102E500004F0DFFB01207F4908707C4908707D4841
:102E60000078012818D16F4801686F48006806F0A3
:102E700006FF07464FF0804106F08BFF0546764877
:102E8000006807F04CF90646294606F0F8FE0446AD
:102E900007F064F9704908606F4800686F49096875
:102EA00088420CDB00206B49087000210846FFF7C0
:102EB0007EF900205549091D086000BFFEE7BDE806
:102EC000FC9F2DE9FC5F6648007801287DD16548AC
:102ED000807801280BD16348407840B96148C078B8
:102EE00028B9614801680068FFF761F922E15D488F
:102EF0004078012837D15B480078002833D15A4800
:102F0000006807F01AF98246584A594B07F026F82C
:102F100006460F465448006807F00FF980463246CF
:102F20003B4606F074FF044607F045F901904E4811
:102F3000006807F002F982464C4A4D4B07F00EF844
:102F400006460F464848006807F0F7F880463246C4
:102F50003B4606F0FDFF044607F02DF9009001996D
:102F6000FFF725F9E6E03F480078012835D13E48D3
:102F7000006807F0E2F882463C4A3E4B06F0EEFF5E
:102F8000804689463848006807F0D7F8064642462A
:102F90004B4606F03CFF044607F00DF9019032481D
:102FA000006807F0CAF80646304A324B06F0D6FFF2
:102FB00004460D462C48006807F0BFF880462246BC
:102FC0002B4606F0C5FF824600E025E207F0F3F845
:102FD00000900199FFF7EBF8ACE02248C078012897
:102FE00071D12048007968B91F48006807F0A5F83A
:102FF00082461E4A1E4B06F0B1FF04460D461A4893
:10300000006839E05FE0000000080140A8012242AA
:10301000CC0A0020C4080020E10A0020D9080020C2
:10302000E20800201400002010000020E408002026
:103030006C090020E8080020E308002030F8FFFFBA
:10304000E9080020EC08002064090020F0080020B6
:10305000D60A0020F1080020F40800205C090020B6
:1030600089080020AE0A0020740800209A999999D6
:103070009999B93F9999C93F07F05FF806462246EA
:103080002B4606F065FF804607F095F80190FE4854
:10309000006807F052F88046FC4AFD4B06F05EFFE0
:1030A00004460D46F848006807F047F806462246F1
:1030B0002B4606F0ACFE824607F07DF800900199A1
:1030C000FFF775F836E0F3480079012832D1EE4871
:1030D000006807F032F88046EC4AEF4B06F03EFFFE
:1030E00004460D46E848006807F027F806462246E1
:1030F0002B4606F02DFF824607F05DF80190E2486E
:10310000006807F01AF88046E04AE34B06F026FF15
:1031100004460D46DC48006807F00FF806462246D4
:103120002B4606F074FE824607F045F800900199A0
:10313000FFF73DF8D948006844F25061884202D256
:103140000020D7490870D6480078D64909788842C7
:103150000FD1D248006844F25061884209D9D24860
:10316000007830B9CF480078D04908700120CE49A6
:103170000870CF480078C0B9CE480168CE480068D2
:1031800006F07DFD07464FF0804106F002FE054641
:10319000C248006806F0CCFF0646294606F06FFDDF
:1031A000044606F0F4FFBD490860BC480068C34906
:1031B0000968884242D30120BD490870C0480078A0
:1031C000E0BBBA480078B7490978884218D1002195
:1031D0000846FEF7ECFF642004F01BFAB9494842A8
:1031E000FEF7E5FF4FF4487004F013FA0020B649EB
:1031F00008700120B54908700320B549087018E02F
:1032000000210846FEF7D3FF642004F002FA4FF4D1
:10321000FA614842FEF7CBFF4FF4487004F0F9F929
:103220000020AC4908700120AB4908700220A84971
:1032300008700120A9490870A1490870A7480078C2
:10324000012867D19B4801689B48006806F017FD7C
:1032500007464FF0804106F09CFD0546A0480068F7
:1032600006F066FF0646294606F009FD044606F00C
:103270008EFF9B490860084600689A4909688842A1
:1032800048D300210846FEF792FF002096490860C7
:1032900009E08F4800789549C8710A2004F045FD7F
:1032A000642004F0B6F94FF40061914804F0FDFF8A
:1032B0000028EED001208C490860C82004F0A9F94C
:1032C00005208A49087200208A4908600BE0874976
:1032D0000A2004F02AFD642004F09BF98548006868
:1032E000401C84490860834800680A28EFDB4FF4DB
:1032F000FA614842FEF75BFF4FF47A7004F089F9F7
:1033000040F23A2004F085F9002074490870012049
:10331000794908707848007801284ED165480168DD
:103320006548006806F0ABFC07464FF0804106F0A8
:1033300030FD05467148006806F0FAFE064629464B
:1033400006F09DFC044606F022FF6C490860084622
:1033500000686B49096888422FD35F4800780128CC
:1033600012D100210846FEF722FF642004F051F933
:1033700054494842FEF71BFF4FF4FA7004F049F934
:1033800000205549087012E000210846FEF70FFFA3
:10339000642004F03EF94FF4FA614842FEF707FF5B
:1033A0004FF4FA7004F035F9002048490870012004
:1033B000544908700020504908705248007801288C
:1033C0002AD13C4801683C48006806F058FC074692
:1033D0004FF0804106F0DDFC05464B48006806F0E2
:1033E000A7FE0646294606F04AFC044606F0CFFE34
:1033F00045490860084600684449096888420BD37B
:1034000000210846FEF7D3FE00203749091D086059
:103410003C49087000BFFEE7BDE8FC9F2DE9FC5F5A
:103420003B480078012875D11A48807801280BD1D3
:103430001848407840B91748C07828B91248016840
:103440000068FEF7B4FE30E11248407801287DD1D3
:103450001048007800287DD10B48006806F06DFE0A
:1034600082460A4A0A4B06F079FD06460F46064890
:10347000006806F062FE804632463B4606F0C7FC16
:10348000044606F098FE46E0740800209A9999993F
:103490009999B93FAE0A00209999C93FB008002018
:1034A000B40A0020240000209E0800209C08002070
:1034B000C90800201400002010000020700900201E
:1034C0009D08002030F8FFFF970800209908002091
:1034D000CA0A00209608002098080020BD08002095
:1034E000C008002078090020A8012242CC0A002050
:1034F00000080140C4080020BC080020B4080020D7
:103500007C090020C8080020B808002074090020A9
:1035100089080020C7E10190FE48006806F00DFE12
:103520008246FD4AFD4B06F019FD06460F46F94856
:10353000006806F002FE804632463B4606F008FD73
:10354000044606F038FE0090019900E002E0FEF724
:103550002EFEAAE0F2480078012833D1ED48006839
:1035600006F0EBFD8246EC4AEE4B06F0F7FC804697
:103570008946E848006806F0E0FD064642464B46AC
:1035800006F045FC044606F016FE0190E14800688E
:1035900006F0D3FD0646E04AE24B06F0DFFC0446A7
:1035A0000D46DC48006806F0C8FD804622462B46E2
:1035B00006F0CEFC824606F0FEFD00900199FEF773
:1035C000F6FD72E0D648C078012837D1D44800799A
:1035D00098BBD048006806F0B0FD8246CE4ACF4B7B
:1035E00006F0BCFC04460D46CA48006806F0A5FD7E
:1035F000064622462B4606F0ABFC804606F0DBFD75
:103600000190C448006806F098FD8046C24AC34B4A
:1036100006F0A4FC04460D46BE48006806F08DFD89
:10362000064622462B4606F0F2FB824606F0C3FD14
:1036300000900199FEF7BBFD37E0FFE7B84800793D
:10364000012832D1B348006806F077FD8046B24ABF
:10365000B44B06F083FC04460D46AE48006806F005
:103660006CFD064622462B4606F072FC824606F0AA
:10367000A2FD0190A748006806F05FFD8046A64ABB
:10368000A84B06F06BFC04460D46A248006806F005
:1036900054FD064622462B4606F0B9FB824606F04C
:1036A0008AFD00900199FEF782FD9F480078C0B91D
:1036B0009E4801689E48006806F0E1FA07464FF010
:1036C000804106F066FB05469A48006806F027FD33
:1036D0000646294606F0D3FA044606F03FFD954912
:1036E00008609448006894490968884219DB012001
:1036F0008D4908709148007898B900210846FEF776
:1037000056FD642003F085FF8D494842FEF74FFDCA
:103710004FF4FA7003F07DFF012088490870894951
:10372000087088480078012818D1804801688048CE
:10373000006806F0A4FA07464FF0804106F029FB26
:1037400005468148006806F0EAFC0646294606F070
:1037500096FA044606F002FD7B4908607A48006844
:103760007A49096888422DDB00207649087078483C
:10377000007838BB00210846FEF719FD0020754986
:10378000086000BF4FF40061734804F08EFD00280C
:10379000F8D001206F4908604FF4FA7003F039FF48
:1037A0004FF4FA614842FEF702FD4FF47A7003F0DD
:1037B00030FF40F23A2003F02CFF012064490870EA
:1037C0006649087065480078012818D15748016893
:1037D0005748006806F053FA07464FF0804106F05C
:1037E000D8FA05465E48006806F099FC0646294668
:1037F00006F045FA044606F0B1FC594908605848FD
:1038000000685849096888421ADB0020534908704B
:1038100055480078A0B900210846FEF7C8FC64208E
:1038200003F0F7FE4FF4FA614842FEF7C0FC4FF494
:10383000487003F0EEFE01204B4908704B490870B8
:103840004A480078012818D138480168384800688B
:1038500006F015FA07464FF0804106F09AFA054641
:103860004348006806F05BFC0646294606F007FA66
:10387000044606F073FC3E4908603D4800683D4937
:10388000096888420FDB0020384908703A48007800
:1038900048B900210846FEF78AFC00202D49091D81
:1038A000086000BFFEE7BDE8FC9F2DE9FC5F3348E0
:1038B000007801282DD11A48807801280BD11848AA
:1038C000407840B91648C07828B9124801680068A5
:1038D000FEF76DFC1FE112484078012870D11048B6
:1038E000007800286CD10B48006806F026FC824660
:1038F000094A0A4B06F032FB06460F4605480068A7
:1039000006F01BFC804632463B4606F080FA044631
:1039100036E0FEE1740800209A9999999999B93F87
:10392000AE0A00209999C93F280900201400002000
:10393000100000202C09002048090020290900203F
:1039400030F8FFFF30090020340900205009002022
:1039500031090020A8012242000801403809002056
:103960003C090020540900203909002040090020AA
:10397000440900204C09002041090020890800204A
:1039800006F019FC0190FE48006806F0D6FB82465E
:10399000FC4AFD4B06F0E2FA06460F46F84800687E
:1039A00006F0CBFB804632463B4606F0D1FA044691
:1039B00006F001FC00900199FEF7F9FBABE0FFE790
:1039C000F2480078012833D1ED48006806F0B5FBD5
:1039D0008246EC4AEE4B06F0C1FA80468946E8483A
:1039E000006806F0AAFB064642464B4606F00FFA70
:1039F000044606F0E0FB0190E148006806F09DFBFC
:103A00000646E04AE24B06F0A9FA04460D46DC48B9
:103A1000006806F092FB804622462B4606F098FA94
:103A2000824606F0C8FB00900199FEF7C0FB72E0E9
:103A3000D648C078012837D1D448007998BBD048FF
:103A4000006806F07AFB8246CE4ACF4B06F086FA33
:103A500004460D46CA48006806F06FFB064622463B
:103A60002B4606F075FA804606F0A5FB0190C44887
:103A7000006806F062FB8046C24AC34B06F06EFA4D
:103A800004460D46BE48006806F057FB064622462F
:103A90002B4606F0BCF9824606F08DFB009001999A
:103AA000FEF785FB37E0FFE7B8480079012832D1FF
:103AB000B348006806F041FB8046B24AB44B06F0BA
:103AC0004DFA04460D46AE48006806F036FB064641
:103AD00022462B4606F03CFA824606F06CFB01902B
:103AE000A748006806F029FB8046A64AA84B06F0C6
:103AF00035FA04460D46A248006806F01EFB06464D
:103B000022462B4606F083F9824606F054FB0090CD
:103B10000199FEF74CFB9F480078C0B99E480168A8
:103B20009E48006806F0ABF807464FF0804106F06B
:103B300030F905469A48006806F0F1FA064629462B
:103B400006F09DF8044606F009FB95490860944884
:103B500000689449096888421ADB01208D49087081
:103B600091480078A0B900210846FEF720FB6420A8
:103B700003F04FFD4FF4FA614842FEF718FB4FF493
:103B8000487003F046FD0120874908708749087096
:103B900086480078012818D17F4801687F4800686E
:103BA00006F06DF807464FF0804106F0F2F8054642
:103BB0007F48006806F0B3FA0646294606F05FF82B
:103BC000044606F0CBFA7A490860794800687949DA
:103BD000096888422DDB0020744908707648007817
:103BE00038BB00210846FEF7E2FA0020734908605E
:103BF00000BF4FF40061724804F057FB0028F8D072
:103C000001206E4908604FF4FA7003F002FD4FF492
:103C1000FA614842FEF7CBFA4FF47A7003F0F9FCF0
:103C200040F23A2003F0F5FC012063490870654931
:103C3000087064480078012818D15748016857482F
:103C4000006806F01CF807464FF0804106F0A1F826
:103C500005465D48006806F062FA0646294606F009
:103C60000EF8044606F07AFA57490860564800688C
:103C700056490968884219DB0020524908705448A7
:103C8000007898B900210846FEF791FA642003F005
:103C9000C0FC50494842FEF78AFA4FF4FA7003F02C
:103CA000B8FC01204A4908704B4908704A4800781E
:103CB000012818D1384801683848006805F0DFFF4E
:103CC00007464FF0804106F064F805464348006817
:103CD00006F025FA0646294605F0D1FF044606F00F
:103CE0003DFA3E4908603D4800683D490968884200
:103CF0000FDB0020384908703A48007848B90021A5
:103D00000846FEF754FA00202C49091D086000BF40
:103D1000FEE7BDE8FC9F70B5202005F039F80028CB
:103D20002DD0314A3149324802F067FC002865D174
:103D3000022000F086F94442204606F0F0F91749C7
:103D40000860032000F07DF9044606F0E8F9124906
:103D50000860084601681148006805F090FF0446B5
:103D60004FF0804106F015F82249086022480068AB
:103D700006F0DEF905460948016828463FE07DE087
:103D8000740800209A9999999999B93FAE0A002030
:103D90009999C93FF8080020140000201000002065
:103DA000FC08002018090020F90800200009002064
:103DB000040900202009002001090020A801224256
:103DC00000080140080900200C09002024090020F7
:103DD0000909002030F8FFFF100900201409002015
:103DE0001C09002011090020080000200400002008
:103DF000000000200C000020A80800203BE005F097
:103E00003EFF044606F0C3F93949086039480068A6
:103E100006F08EF9054638480168284605F02FFF60
:103E2000044606F0B4F933490860344800780128A4
:103E300004D133480068401C3149086040F6AC505A
:103E40003049086030480078012802D1FFF72DFD85
:103E500005E02E480078012801D1FFF7DFFA2C4851
:103E60000078012801D1FFF72CF82A4800780128B2
:103E700001D1FEF791FC202004F09BFF70BD1FB51F
:103E80000121092004F03AFC48208DF80700202089
:103E9000ADF8040003208DF8060001A91E4804F0C7
:103EA00071F94FF4A06004F091FE17208DF8000026
:103EB00002208DF8010000208DF8020001208DF80D
:103EC0000300684604F087FE0521012004F070FA23
:103ED0002020029001208DF80E0000208DF80C00AB
:103EE0000C208DF80D0002A804F0ECFE1FBD0000B0
:103EF000A8080020AC080020140000209F08002023
:103F00009008002074080020AC0A0020AD0A0020B0
:103F10009B080020E00A0020000C014000B587B09B
:103F20000121042004F0EAFB0121084604F0F3FB20
:103F300004208DF81B000320ADF8180006A95C488A
:103F400004F020F903A805F03DFB0020ADF81200B5
:103F5000ADF80E004FF6FF70ADF810000020ADF880
:103F60000C0003A94FF0804005F000F800231A462A
:103F700003214FF0804005F008FC684605F035FB52
:103F80000A20ADF808006946400705F082FA0122D0
:103F90001146900705F061FB00214FF0804005F0CD
:103FA000D5FD0121880705F03DFB07B000BD00B538
:103FB00087B00121042004F0A1FB0121022004F0BC
:103FC000AAFB04208DF81B00C020ADF8180006A93C
:103FD000374804F0D7F803A805F0F4FA0020ADF84C
:103FE0001200ADF80E004FF6FF70ADF81000002083
:103FF000ADF80C0003A92F4804F0B8FF00231A46BF
:1040000003212C4805F0C1FB684605F0EEFA0A20B2
:10401000ADF808006946274805F03BFA012125481C
:1040200005F0C6FD01221146224805F016FB0021CD
:10403000204805F08BFD01211E4805F0F3FA07B07A
:1040400000BD70B50546022D02D0032D14D10AE043
:104050004FF0804005F09DFD04B200214FF08040FC
:1040600005F074FD0AE0134805F093FD04B2002149
:10407000104805F06BFD01E0002400BF00BF2046A2
:1040800070BD10B50121880705F095FD18B101211B
:10409000880705F0A1FD10BD10B50121054805F008
:1040A0008AFD18B10121034805F096FD10BD0000FE
:1040B000000801400004004000B589B0012142F22F
:1040C000110004F01BFB18208DF823004FF47070D2
:1040D000ADF8200003208DF8220008A9274804F03D
:1040E00051F805A805F06EFA0020ADF81A00ADF8F9
:1040F000160044F61F60ADF818004720ADF8140014
:1041000005A91F4804F032FF6020ADF8040000202C
:10411000ADF80C000120ADF806000020ADF80A0053
:1041200001A9174804F05FFF01A9154804F09DFF9D
:1041300001A9134804F0E6FF01A9114805F02DF884
:1041400001210F4805F07AFA08210D4805F09AFB85
:1041500008210B4805F09FFB0821094805F0A8FB42
:104160000821074805F0ADFB0121054805F05AFB81
:104170000121034805F056FA09B000BD00100140C6
:104180000034014008B54FF4E06004F01FFD362014
:104190008DF8000000208DF8010003208DF802004A
:1041A00001208DF80300684604F015FD08BD0EB52A
:1041B0000121102004F0AFFA40F2E730ADF804001E
:1041C0004720ADF800006946104804F0CFFE0121F9
:1041D0000E4805F0EDFC012211460C4805F03DFAB1
:1041E00001210A4805F01EFA0EBD10B5FFF7CAFFFF
:1041F000FFF7DDFF10BD10B50121044805F0DBFC21
:1042000018B10121014805F0E7FC10BD0010004085
:1042100070B501240123EFA204210020FCF77BFBF1
:104220000123EFA205210020FCF775FB0123EFA27B
:1042300006210020FCF76FFB0CE02246641C0123E2
:1042400005213C20FDF7E7F801232A4606212A2014
:10425000FDF7E1F802F084F90500EED1C82401234E
:10426000E4A20421FCF757FBFDF790FD70BD70B58B
:1042700005460C46FEF786F9D020FEF72DFAFEF72C
:10428000BEF918B1FEF79CF9012070BD2846FEF773
:1042900023FAFEF7B4F92046FEF71EFAFEF7AFF94F
:1042A00018B1FEF78DF90120EFE7FEF789F900203C
:1042B000EBE770B504460025BC2C01D3012510E0C6
:1042C000622C01D302250CE02A2C01D3032508E03F
:1042D000142C01D3042504E00A2C01D3052500E0A9
:1042E000062529461A20FFF7C2FF70BD70B50446A7
:1042F000B4F57A7F01D94FF47A74042C00D20424E7
:104300004FF47A70B0FBF4F0401EC5B22946192074
:10431000FFF7ADFF05466008FFF7CBFF70BD70B536
:104320000446FEF72FF9D020FEF7D6F9FEF767F91D
:104330002046FEF7D1F9FEF762F9FEF723F9D12006
:10434000FEF7CAF9FEF75BF90020FEF7EEF9054625
:10435000FEF736F9284670BD10B50446E006010E9A
:104360001C20FFF784FF10BD10B50446E006010EC7
:104370001B20FFF77CFF10BD10B5FEF7F0F8802181
:104380006B20FFF774FF642003F043F900216B20DA
:10439000FFF76DFF0320FFF7E7FF0020FFF7DCFFCB
:1043A0003220FFF7A3FF00213820FFF760FF002134
:1043B0006A20FFF75CFF00212320FFF758FF8021D0
:1043C0003720FFF754FF7520FFF7A9FF0446682C3C
:1043D0000BD101216B20FFF74AFF00216C20FFF772
:1043E00046FF3220FFF782FF07E0012384A202216B
:1043F0000020FCF790FA012010BD012383A20221C6
:104400000020FCF788FA0020F6E72DE9F041064687
:104410000F4614461D46FEF7B5F8002141EA460155
:10442000C8B2FEF759F9FEF7EAF820B1FEF7C8F86E
:104430000120BDE8F0813846FEF74EF9FEF7DFF8BF
:10444000FEF7A0F8012101EB4601C8B2FEF744F9DE
:10445000FEF7D5F80DE0012C04D10020FEF765F938
:10446000287003E00120FEF760F92870601EC4B2D6
:104470006D1C002CEFD1FEF7A3F80020D9E72DE941
:10448000F84F6B46022241216820FFF7BEFF9DF8DE
:1044900001009DF8001040EA01200FFA80FA504612
:1044A00005F04BFE804600225B4B05F0C9FD064639
:1044B0005A4A5B4B05F0ABFC044605F0AEFE834662
:1044C0005849584605F033FC044605F047FE00B253
:1044D000BDE8F88F2DE9FC4104460D4616466B46B3
:1044E000062243216820FFF790FF0746BFB99DF8D9
:1044F00001009DF8001040EA012000B220809DF8E4
:1045000003009DF8021040EA012000B228809DF8C7
:1045100005009DF8041040EA012000B230803846C2
:10452000BDE8FC812DE9FC4104460D4616466B466C
:1045300006223B216820FFF768FF0746BFB99DF8B8
:1045400001009DF8001040EA012000B220809DF893
:1045500003009DF8021040EA012000B228809DF877
:1045600005009DF8041040EA012000B23080384672
:10457000BDE8FC812DE9F04105460E4617469846F8
:10458000FEF700F8002141EA4501C8B2FEF7A4F8A1
:10459000FEF735F820B1FEF713F80120BDE8F081F1
:1045A0003046FEF799F8FEF72AF800240CE018F8D8
:1045B0000400FEF791F8FEF722F818B1FEF700F8B4
:1045C0000120EBE7601CC4B2BC42F0DBFDF7F8FF52
:1045D0000020E3E7444D5020696E672E2E2E000028
:1045E000417474656D7074733A0000004572726FA7
:1045F000723A0000444D50204F4B212020202000D3
:104600004D50553630353020657272004D5055365C
:10461000303530204F4B210000407540A4703D0ADA
:10462000D74342400000C84238B50446FB4890F8E2
:104630002400C0B114B10220009001E000200090DD
:10464000F64A1268D17BF54A526810786B4601220F
:10465000FFF790FF10B14FF0FF3038BD9DF800100C
:10466000EE48417423E0ED48807A10B94FF0FF30F6
:10467000F3E724B1E948407C08B10020EDE714B12C
:104680000120009001E000200090E44A1268D17BF4
:10469000E24A526810786B460122FFF76BFF10B1B7
:1046A0004FF0FF30D9E79DF80010DC48417400203E
:1046B000D3E738B5002419E0D8480068C07AA04292
:1046C00004D0D6480068407DA04200D10CE0D34918
:1046D000496808786B4601222146FFF796FE10B123
:1046E0004FF0FF3038BD00BF601CC4B2CB484068FB
:1046F0000079A042E0DC0020F4E770B504460D46E6
:10470000C6480068C07AA04204D0C4480068407D12
:10471000A04202D14FF0FF3070BDC0484068007920
:10472000A04202DC4FF0FF30F6E7BC494968087848
:104730002B4601222146FFF768FEEDE738B5044617
:10474000B64890F82300A04201D1002038BD14B132
:104750003020009001E000200090B048807C20B123
:104760009DF8000040F002000090AC4890F8220054
:1047700020B19DF8000040F080000090A74A126828
:10478000117DA64A526810786B460122FFF7F2FEAF
:1047900010B14FF0FF30D9E7A04880F82340002047
:1047A000D4E738B5044604F0700010B10120009041
:1047B00005E014B10020009001E040200090974AED
:1047C0001268917C954A526810786B460122FFF777
:1047D000D1FE20B1002191488172481E38BD9DF85C
:1047E000000020F040018D4801730020009004F08B
:1047F000400020B99DF8000040F00400009004F053
:10480000200020B99DF8000040F00200009004F064
:10481000100020B99DF8000040F00100009004F065
:10482000080020B99DF8000040F0380000907B4A55
:104830001268D17C794A526810786B460122FFF7E2
:1048400099FE20B1002175488172481EC6E724B147
:10485000082C02D00020FFF771FF704884720021FD
:104860000175322002F0D5FE0020B7E738B50446C6
:104870006A48807CA04201D1002038BD002C46D07F
:10488000664A12681179654A526810786B460122AF
:10489000FFF7BBFD10B14FF0FF30EEE79DF80000D1
:1048A00020F0200000905D4A126811795B4A52683E
:1048B00010786B460122FFF75DFE10B14FF0FF301C
:1048C000DBE7032002F0A5FE02200090534890F899
:1048D000220020B19DF8000040F0800000904F4879
:1048E00090F8230020B19DF8000040F030000090C7
:1048F0004A4A1268117D494A526810786B46012273
:10490000FFF738FE002851D04FF0FF30B5E7434A9B
:1049100012681179414A526810786B460122FFF7FC
:1049200074FD10B14FF0FF30A7E73C48807A00F0EB
:10493000010028B19DF8000040F02000009004E044
:104940009DF8000020F020000090344A1268117990
:10495000324A526810786B460122FFF70BFE10B105
:104960004FF0FF3089E7032002F053FE2B4890F808
:10497000220010B18020009001E000200090274824
:1049800090F8230020B19DF8000040F03000009026
:10499000224A1268117D214A526810786B46012222
:1049A000FFF7E8FD10B14FF0FF3066E71B48847455
:1049B000002062E708B51948807A10B94FF0FF303F
:1049C00008BD00200090154A1268D17B134A526836
:1049D00010786B460122FFF7CDFD10B14FF0FF308C
:1049E000EEE70E4A126851790C4A526810786B460D
:1049F0000122FFF7BFFD10B14FF0FF30E0E7074A9B
:104A000012681179054A526810786B460122FFF747
:104A1000B1FD28B14FF0FF30D2E70000800900203F
:104A2000F74890F82400002853D00C200090F44A56
:104A300012681179F24A526810786B460122FFF72A
:104A400099FD10B14FF0FF30BAE7322002F0E1FDDE
:104A5000C0200090EA48807A00F0010020B19DF863
:104A6000000040F020000090E54A12681179E44A05
:104A7000526810786B460122FFF77CFD10B14FF0B1
:104A8000FF309DE7DE48407C10B10220009001E03D
:104A900000200090DA4A1268D17BD94A5268107817
:104AA0006B460122FFF766FD10B14FF0FF3087E73C
:104AB00000200090D24A12685179D14A5268107889
:104AC0006B460122FFF756FD002855D04FF0FF300E
:104AD00076E704200090CA4A12681179C84A5268E1
:104AE00010786B460122FFF745FD10B14FF0FF3003
:104AF00066E7C348807C20B9C148807A00F0010095
:104B000010B94020009001E060200090BC4A12687B
:104B10001179BB4A526810786B460122FFF72AFDD3
:104B200010B14FF0FF304BE7322002F072FDB44875
:104B3000407C10B10120009001E000200090B04ABC
:104B40001268D17BAE4A526810786B460122FFF79B
:104B500011FD10B14FF0FF3032E7A94A12685179C8
:104B6000A74A52681078A64B10330122FFF702FDC6
:104B700010B14FF0FF3023E7002021E770B5044665
:104B8000002624F001049E4890F8240008B100207B
:104B900070BD9B48807A10B94FF0FF30F8E7984815
:104BA000057C807A2040964908740846007CA04223
:104BB00002D04FF0FF3600E0002614B99048007D87
:104BC00018B10120FFF730FD02E00020FFF72CFDB7
:104BD0003CB1FFF7EFFE20B1894805744FF0FF307C
:104BE000D6E73046D4E738B504468548807A10B910
:104BF0004FF0FF3038BDBC2C02DB0120009015E0E7
:104C0000622C02DB0220009010E02A2C02DB032041
:104C100000900BE0142C02DB0420009006E00A2C2C
:104C200002DB0520009001E0062000907448C07A65
:104C30009DF80010884201D10020DBE7704A12681D
:104C400091786F4A526810786B460122FFF792FC08
:104C500010B14FF0FF30CDE79DF800106848C172E9
:104C60000020C7E738B50446282C02DD4FF0FF309E
:104C700038BDDCB90020FFF761FD00208DF8000091
:104C800007208DF801005E4A1268917C5C4A5268E8
:104C900010786B460222FFF76DFC10B14FF0FF3029
:104CA000E6E70021564801750020E1E70120FFF703
:104CB00045FD20208DF80000012C06D100208DF844
:104CC00001000520FFF78FFF17E0052C06DC01200F
:104CD0008DF801000520FFF786FF0EE0142C06DC9E
:104CE00002208DF801000A20FFF77DFF05E0032078
:104CF0008DF801001420FFF776FF9DF801000721D1
:104D000001EB8010C0B28DF801003D4A1268917C21
:104D10003B4A526810786B460222FFF72BFC10B119
:104D20004FF0FF30A4E7082135488172002101735C
:104D3000012101750020FFF721FF002098E738B519
:104D400004462F48807A10B94FF0FF3038BD2C4808
:104D500090F8240010B14FF0FF30F7E72848007DAD
:104D600050B134B1282C04DCE0B2FFF77BFF002007
:104D7000ECE70020FFF776FF042C01DA042404E0BE
:104D8000B4F57A7F01DD4FF47A744FF47A7090FBBA
:104D9000F4F0401EC0B20090194A12685178184AC7
:104DA000526810786B460122FFF7E4FB10B14FF018
:104DB000FF30CBE79DF80000401C4FF47A7191FB67
:104DC000F0F081B20E48C1810146C9894810FFF751
:104DD0000AFF0020BAE738B504460948807A10B9BE
:104DE0004FF0FF3038BD022C06D0042C0AD0082C1E
:104DF0000BD0102C0FD10BE0002000900EE0000033
:104E0000800900200820009008E01020009005E0B4
:104E10001820009002E04FF0FF30E3E700BFF848B1
:104E2000407A9DF80010B0EBE10F01D10020D9E7E6
:104E3000F34A1268D179F24A526810786B4601221F
:104E4000FFF798FB10B14FF0FF30CBE79DF8000063
:104E5000C110EB4841720020C4E738B50446E84869
:104E6000807A10B94FF0FF3038BDFA2C09D0B4F574
:104E7000FA7F09D0B4F57A7F09D0B4F5FA6F0CD176
:104E800008E0002000900BE00820009008E01020CF
:104E9000009005E01820009002E04FF0FF30E3E7BB
:104EA00000BFD748007A9DF80010B0EBE10F01D1A8
:104EB0000020D9E7D24A12689179D14A5268107815
:104EC0006B460122FFF756FB10B14FF0FF30CBE7E6
:104ED0009DF80000C010CA4908720020C4E71CB544
:104EE00080208DF80000C64A1268917CC44A52683E
:104EF00010786B460122FFF73DFB10B14FF0FF30F9
:104F00001CBD642002F085FB00208DF80000BC4A27
:104F10001268917CBA4A526810786B460122FFF7FA
:104F200029FB10B14FF0FF30EAE7B54A1268917DD6
:104F3000B34A526810786B460622FFF766FA10B142
:104F40004FF0FF30DCE79DF80500C007400F9DF8EB
:104F5000031001F0010140EA41009DF8011001F049
:104F6000010140EA010474B1012C03D10121A448DC
:104F7000C17427E0022C03D10021A148C17421E0B3
:104F80004FF0FF30BCE79E4A1268D1789C4A5268C5
:104F900010786B460122FFF738FA10B14FF0FF305E
:104FA000AEE79DF8000000F00F0414B94FF0FF3099
:104FB000A6E7042C03D101219148C17402E000212D
:104FC0008F48C174FF218E488172FF208C4908727E
:104FD000FF218B484172C1724FF6FF71C181FF21E1
:104FE000017481740121017380F82210002180F87E
:104FF00023104175017516300160416081601638DB
:1050000080F8241080F82510C1844FF4FA60FFF76F
:1050100024FF10B14FF0FF3072E70220FFF7DBFEF4
:1050200010B14FF0FF306BE72A20FFF7DCFD10B125
:105030004FF0FF3064E73220FFF781FE10B14FF0F0
:10504000FF305DE70020FFF799FD10B14FF0FF3012
:1050500056E70020FFF70AFC10B14FF0FF304FE792
:105060000020FFF79EFB00204AE770477CB504460E
:105070000D466348807A00F0700010B94FF0FF30A1
:105080007CBD5F4A1268117B5D4A526810786B469E
:105090000622FFF7BAF910B14FF0FF30F0E79DF8A4
:1050A00001009DF8001040EA012000B220809DF828
:1050B00003009DF8021040EA012000B260809DF8D4
:1050C00005009DF8041040EA012000B2A08015B14F
:1050D0002846FFF7CAFF0020D2E77CB504460D46FC
:1050E0004748807A00F0080010B94FF0FF307CBDCF
:1050F000434A1268517B424A526810786B46062236
:10510000FFF783F910B14FF0FF30F0E79DF8010091
:105110009DF8001040EA012000B220809DF80300B5
:105120009DF8021040EA012000B260809DF8050061
:105130009DF8041040EA012000B2A08015B1284675
:10514000FFF793FF0020D2E72DE9FE4F05460C46FE
:105150002B48807A18B94FF0FF30BDE8FE8F284AFF
:105160001268917B264A5268107802AB0222FFF740
:105170004CF910B14FF0FF30EFE79DF809009DF8B2
:10518000081040EA012006B214B12046FFF76DFF77
:105190001B494968C88804F0CBFF19490190496848
:1051A000B1F9080004F0BBFF8346304604F0B7FFB6
:1051B0005946009004F0B5FD8246019904F0E9FDDE
:1051C0008146104904F05BFD80464FF08F4104F0AA
:1051D000AEFD074604F0C2FF28600020BDE710B511
:1051E00088B004461CB94FF0FF3008B010BD2068ED
:1051F00050B9606840B9A06830B90020F5E70000F8
:105200008009002000000C42FA494968087806AB82
:1052100003221146FFF7F9F810B14FF0FF30E4E731
:105220009DF81800082101EB201000F00F00ADF8E8
:1052300000009DF8190001EB201000F00F00ADF800
:1052400002009DF81A0001EB201000F00F00ADF8ED
:10525000040020684100BDF90000403091FBF0F0EF
:1052600000B2ADF8100060684100BDF902004030A6
:1052700091FBF0F000B2ADF81200A0684100BDF95A
:105280000400403091FBF0F000B2ADF81400D949B1
:105290004968087806AB06221146FFF7B6F810B148
:1052A0004FF0FF30A1E79DF819009DF8181040EA73
:1052B000012000B2ADF808009DF81B009DF81A10FF
:1052C00040EA012000B2ADF80A009DF81D009DF8EB
:1052D0001C1040EA012000B2ADF80C00BDF810002F
:1052E000BDF80810084400B2ADF81000BDF8120077
:1052F000BDF80A10084400B2ADF81200BDF8140061
:10530000BDF80C10084400B2ADF81400BDF8100050
:10531000000A8DF81800BDF81000C0B28DF8190011
:10532000BDF81200000A8DF81A00BDF81200C0B2D4
:105330008DF81B00BDF81400000A8DF81C00BDF8A4
:105340001400C0B28DF81D00AA494968087806AB60
:1053500006221146FFF70EF910B14FF0FF3044E777
:10536000002042E70146A348007A30B1012807D067
:10537000022809D003280FD10AE0FA2008800EE0A5
:105380004FF4FA7008800AE04FF47A70088006E063
:105390004FF4FA60088002E00020088000BF00BFE0
:1053A0000020704701469348407A30B1012807D069
:1053B000022808D003280CD108E0022008700BE076
:1053C0000420087008E00820087005E0102008702C
:1053D00002E04FF0FF30704700BF8648C07C18B134
:1053E00008784006000E08700020F4E70146814866
:1053F000C07A082817D2DFE800F01704070A0D105A
:105400001318BC20088013E06220088010E02A20D6
:1054100008800DE0142008800AE00A20088007E0D8
:105420000520088004E000BF00BF0020088000BF06
:1054300000BF0020704701466E4890F8240010B16C
:105440004FF0FF3070476B48C08908800020F9E7B3
:10545000014600200880401E704701464FF0FF3093
:10546000704701466348007A30B1012807D002280E
:1054700008D003280CD108E05F4808600BE05F48C3
:10548000086008E05E48086005E05E48086002E0E9
:105490004FF0FF30704700BF0020FBE70146554842
:1054A000407A30B1012808D002280AD0032810D150
:1054B0000BE04FF4804008800EE041F69C700880BD
:1054C0000AE04FF48050088006E04FF40060088046
:1054D00002E04FF0FF30704700BF4648C07C10B17B
:1054E0000888401008800020F5E701464148007C0C
:1054F00008700020704701463E48807A10B10120B4
:10550000087001E0002008700020704738B504469C
:105510003848807A10B94FF0FF3038BD354A1268EC
:10552000117C344A526810786B460222FEF76DFFF8
:1055300010B14FF0FF30F0E79DF801009DF800102A
:1055400040EA012000B220800020E6E72DE9FE4F6E
:105550000746884692461D46DDF830B000260024F6
:10556000244890F8240010B1601EBDE8FE8F002092
:1055700028702048807A10B94FF0FF30F5E71D48B9
:10558000007C10B94FF0FF30EFE71A48007C00F0C4
:10559000400008B1B01CC6B21648007C00F02000E4
:1055A00008B1B01CC6B21348007C00F0100008B16E
:1055B000B01CC6B20F48007C00F0080008B1B01D56
:1055C000C6B20C4A1268917A0A4A526810786B4641
:1055D0000222FEF71AFF10B14FF0FF30C5E79DF829
:1055E00001009DF8001040EA0129B1450CDA0020C5
:1055F000BBE7000080090020000003430000834255
:105600003333034233338341FC4840684088B9EB6D
:10561000600F17DDF94A1268517CF84A5268107819
:105620006B460122FEF7F1FE10B14FF0FF309CE710
:105630009DF8000000F0100020B1FFF7BBF96FF0FB
:10564000010092E75046FFF710FDEC4A1268D17A4C
:10565000EA4A526810786B463246FEF7D6FE10B121
:105660004FF0FF3081E799FBF6F0401E8BF8000009
:1056700000202870B4422AD0E048007C00F00800E6
:1056800028B3601C1DF800001DF8041040EA01203A
:1056900000B2A8F80000E01C1DF80010A01C1DF8C6
:1056A000000041EA002000B2A8F80200601D1DF8C9
:1056B0000010201D1DF8000041EA002000B2A8F8EB
:1056C0000400287840F008002870A01D84B2B4427D
:1056D00013D0CA48007C00F0400070B1601C1DF877
:1056E00000001DF8041040EA012000B2388028783C
:1056F00040F040002870A01C84B2B44213D0BF48D0
:10570000007C00F0200070B1601C1DF800001DF846
:10571000041040EA012000B27880287840F0200090
:105720002870A01C84B2B44213D0B448007C00F0AE
:10573000100070B1601C1DF800001DF8041040EA54
:10574000012000B2B880287840F010002870A01C1A
:1057500084B2002009E7F8B504460F461646A7486C
:1057600090F8240010B94FF0FF30F8BDA348807ABC
:1057700010B94FF0FF30F8E7A04A1268917A9F4ABB
:10578000526810786B460222FEF73FFE10B14FF0D0
:10579000FF30EAE79DF801009DF8001040EA01257E
:1057A000A54203DA00203070401EDEE793484068CF
:1057B0004088B5EB600F17DD904A1268517C8F4A24
:1057C000526810786B460122FEF71FFE10B14FF0B1
:1057D000FF30CAE79DF8000000F0100020B1FFF78D
:1057E000E9F86FF00100C0E7E2B2844B1B68D97A98
:1057F000824B5B6818783B46FEF707FE10B14FF00E
:10580000FF30B2E795FBF4F0401E30700020ACE7AB
:1058100001467A4880F82210002070477CB5054682
:1058200076494968087801AB04220D21FEF7EDFDA9
:1058300008B107207CBD9DF80700C0F301109DF85A
:10584000041001F0E00140EAE1008DF800009DF84D
:105850000700C0F381009DF8051001F0E00140EA67
:10586000E1008DF801009DF8070000F003009DF8AD
:10587000061001F0E00140EAE1008DF8020000248A
:105880001CE01DF8040018B9002045F8240013E0BE
:105890005B4845F8240006E055F82400594904F017
:1058A00046FA45F824001DF80400401EC0B20DF869
:1058B00004000028F0D100BF601CC4B2032CE0DB60
:1058C0000020B7E72DE9FE4F06460F460025684643
:1058D000FFF7A4FF002442E056F8240057F82410F4
:1058E000A0EB010ABAF1000F01DB514601E0CAF159
:1058F0000001084604F013FC83464FF08F4104F08A
:1059000048FA80465DF82400002104F0A3FC16D07C
:105910005DF82410404604F03CFA82464FF07E5178
:1059200004F0FFF9814629F0004A3748416A5046A1
:1059300004F09AFC12D20120A04005430EE0324848
:10594000C169404604F086FC05D32F48016A4046F1
:1059500004F08AFC02D20120A0400543641C032C01
:10596000BADB2846BDE8FE8F2DE9FC5F06460F46F0
:10597000002522494968087801AB03220D21FEF772
:1059800044FD10B10720BDE8FC9F9DF8040000F025
:105990001F008DF804009DF8050000F01F008DF831
:1059A00005009DF8060000F01F008DF80600002499
:1059B00062E056F8240057F82410A0EB010BBBF16D
:1059C000000F01DB594601E0CBF10001084604F06D
:1059D000A6FB4FF08F41009004F0DBF9814601A84F
:1059E000005DC0B30849086804F0A2FB834659462D
:1059F000064804F0CEF980460FE000008009002040
:105A00007B14AE3E1D5A843F74B5000800B04C456F
:105A1000FE49404604F08BF9804601A8005D401E17
:105A2000C0B201A908550028F2D14146484604F009
:105A3000B0F983464FF07E5104F073F982462AF0A4
:105A4000004BF3488169584604F00EFC13D2012044
:105A5000A04005430FE0FFE7ED480169484604F028
:105A6000F9FB05D3EA484169484604F0FDFB02D240
:105A70000120A0400543641C032C9ADB284682E7E2
:105A80002DE9F04F87B005460C46914601208DF870
:105A9000100000208DF81100DE4A1268917CDD4A6A
:105AA0005268107804AB0222FEF764FD20B14FF07B
:105AB000FF3007B0BDE8F08FC82001F0AAFD00203C
:105AC0008DF81000D34A1268D17BD24A5268107800
:105AD00004AB0122FEF74EFD10B14FF0FF30E8E7B6
